:020000040800F2
:1000000040180020010100088916000809130008A3
:1000100085160008150A0008752B0008000000006E
:100020000000000000000000000000009D1D00080E
:10003000D910000800000000FD160008F11E00089D
:100040001B0100081B0100081B0100081B01000820
:100050001B0100081B0100081B0100081B01000810
:100060001B0100081B0100081B010008A10C00086F
:10007000C10C0008E10C0008010D0008210D00086A
:10008000410D0008610D00081B0100081B0100085C
:100090001B0100081B0100081B0100081B010008D0
:1000A0001B0100081B0100081B0100081B010008C0
:1000B0001B0100081B0100081B0100081B010008B0
:1000C0001B0100081B0100081B0100081B010008A0
:1000D0001B01000869240008F1240008D525000848
:1000E0001B0100081B0100081B010008DFF80CD0F1
:1000F00000F0DCFA00480047B12C0008401800204E
:100100000648804706480047FEE7FEE7FEE7FEE7B1
:10011000FEE7FEE7FEE7FEE7FEE7FEE7711F0008E9
:10012000ED00000840EA01039B0703D009E008C97D
:10013000121F08C0042AFAD203E011F8013B00F8AC
:10014000013B521EF9D27047D2B201E000F8012BF8
:10015000491EFBD270470022F6E710B513460A4647
:1001600004461946FFF7F0FF204610BDF0B480EAC0
:100170000102D40F4200B2EB410F02D20246084600
:1001800011464A0042D0C30DDDB2C1F3C752AD1AC9
:10019000202D35DAC1F3160141F4000204B15242B8
:1001A000C5F1200602FA06F12A411044B3EBD05FF4
:1001B00023D0C4B1012DA0EBC35009DCF0BC4FF03B
:1001C000004202EAC352DBB200F5000000F0E3B9DE
:1001D000400000F1807000EBC350A0F1807040EA55
:1001E000D170490009E0490841EAC071A0EBC35051
:1001F00000F50000400800EBC350F0BC00F0C2B9AD
:100200006142012202EB4101001BF6E7F0BC70479E
:1002100081F00041AAE780F00040A7E780EA0102F0
:1002200010B502F00043400022D04A001FD0010E5A
:1002300001EB1261C0F35600C2F3560240F4000015
:1002400042F40002A0FB022000047F39140400D015
:10025000401C50EA124001D44000491EC2B20C06B4
:1002600004EBD010401C4008802A02D003E000209C
:1002700010BD20F00100002900DA0020184310BD55
:1002800030B480EA010202F0004530F0004221F073
:10029000004013D090B1C30DD40DC2F31601C0F3CA
:1002A0001600E41A41F4000140F400027D3491424A
:1002B00001D3641C00E04900002C02DA30BC0020AD
:1002C00070474FF400000023914201D3891A034381
:1002D00040084FEA4101F7D151B1914202D14FF0AC
:1002E000004105E002D24FF0010101E06FF0010191
:1002F00003EBC450284430BC00F044B92DE9FE4F54
:1003000081EA030404F0004421F0004100944FF01E
:10031000000B23F0004350EA01045ED052EA0304CC
:100320005BD0C3F30A54C1F30A552C44A4F2F3344E
:100330000194A0FB0254C1F3130141F48011C3F3F3
:10034000130343F4801301FB024400FB034E840AB1
:10035000970A44EA815447EA8357A4FB0768029549
:100360008D0A05FB07854FEA932C04FB0C542705E7
:10037000029D4FEA065847EA1637B5EB08056EEBC3
:10038000070C870E920E47EA811742EA8312A7FBF9
:100390000201B6EB0B0164EB00042B0D43EA0C33B6
:1003A0005E1844EB1C50DA465146E7FB0201C5F3E8
:1003B00013044FEA0B3343EA14534FEA0432019C0F
:1003C00043EA0603A4F10C040294009CCDE900B4B6
:1003D00000F01EF903B0BDE8F08F00200146F9E7F8
:1003E0002DE9F04D81EA030404F0004B21F00045B3
:1003F00014464FF0000A23F0004150EA050220D0D5
:1004000054EA01021DD0C5F30A570246C5F313038F
:10041000C1F31300C1F30A5640F4801543F480136E
:10042000A7EB0608101BD64608F2FD3873EB050053
:1004300002D308F1010801E092185B41B8F1000F06
:1004400003DA00200146BDE8F08D00204FF4801152
:10045000064684460EE0171B73EB050705D3121BF7
:1004600063EB050306434CEA010C49084FEA3000F0
:1004700092185B4150EA0107EDD152EA030012D015
:1004800082EA040083EA0501084305D0101BAB4152
:1004900006D20122002306E000224FF0004302E0D2
:1004A0006FF0010253101AEB06004CEB085110EBF1
:1004B0000A0041EB0B01BDE8F04D00F09AB8C10F06
:1004C00080EAE0700844CA079623002100F063B870
:1004D00096230022114600F05EB80EB540F233417B
:1004E00002910021CDE900110A460B4600F090F878
:1004F00003B000BD00F0004220F00040C10DC0F389
:10050000160040F400007F2901DA00207047962988
:1005100003DCC1F19601C84001E096398840002A09
:10052000F4D04042704700F0004230F000400AD062
:10053000C10D01F56071C0F3160042EA0151C20815
:1005400040071143704700200146704701F0004307
:1005500030B421F0004150EA010206D00A0DA2F5A4
:100560006072C1F31301002A02DC30BC0020704726
:10057000440F44EAC104C100E01830BC00EBC25093
:10058000AFF300800029A8BF7047401C490008BF96
:1005900020F00100704710B4B0FA80FC00FA0CF0B3
:1005A00050EA010404BF10BC704749B1CCF12004EB
:1005B00021FA04F411FA0CF118BF01212143084378
:1005C000A3EB0C01CB1D4FEA00614FEA102042BFA4
:1005D000002010BC704700EBC35010440029A4BF9A
:1005E00010BC7047401C490008BF20F0010010BC3F
:1005F000704710B5141E73F1000408DA401C41F175
:10060000000192185B411A4301D120F0010010BD96
:100610002DE9F04D92469B4611B1B1FA81F202E00C
:10062000B0FA80F22032904600F052F804460F46AD
:1006300040EA0A0041EA0B0153465A46084313D0E8
:10064000114653EA010019D0C8F14002504600F0AB
:100650004EF805460E4650465946424600F038F8D8
:10066000084305D0012004E020463946BDE8F08D5E
:100670000020054346EAE0762C4337430A98630599
:10068000E40AA0EB08000022FD0A44EA47540A30BD
:1006900002D500200146E9E7010510196941DDE9AD
:1006A000084500196941BDE8F04DA2E7064C074D29
:1006B00006E0E06840F0010394E807009847103432
:1006C000AC42F6D3FFF716FD58300008783000082A
:1006D000202A04DB203A00FA02F100207047914002
:1006E000C2F1200320FA03F3194390407047202AF7
:1006F00004DB203A21FA02F00021704721FA02F3CC
:10070000D040C2F1200291400843194670470000D2
:1007100008B50121084601F005F801214FF40470E5
:1007200001F030F80E20ADF8000000208DF8030035
:100730006946024800F00EFD08BD000000100140AF
:1007400010B5FFF7E5FF00F001F810BD00B591B05E
:100750003A4800F01FFB3A4806903A4807900020BC
:1007600008900320099000200A9080200B90400000
:100770000C9080000D9020200E9000020F90002021
:10078000109006A92D4800F0ABFB01212B4800F08A
:10079000F5FA0020019001208DF808008DF809007D
:1007A0004FF4602003900020049003208DF8140083
:1007B00001A923484C3800F071F84FF4404000F094
:1007C000A5FF032301220B211D484C3800F08EF8B1
:1007D000032302220C211A484C3800F087F8032327
:1007E0001A460D2116484C3800F080F801211448B3
:1007F0004C3800F034F8012111484C3800F024F84E
:100800000F484C3800F0CEF800BF0D484C3800F0CF
:100810003BF80028F9D10A484C3800F0D3F800BF63
:1008200007484C3800F026F80028F9D10121044887
:100830004C3800F0BCF811B000BD000008000240C8
:100840004C2401401200002021B1826842F00102D4
:10085000826003E0826822F001028260704721B169
:10086000826842F48072826003E0826822F48072BF
:1008700082607047014600208A6802F004020AB1D3
:10088000012000E000207047014600208A6802F045
:1008900008020AB1012000E00020704730B502468E
:1008A0000020002350680F4C20400D790C6844EA6A
:1008B00005242043506090680B4C2040D1E902543D
:1008C0002C434D7944EA450420439060D06A20F4DB
:1008D00070000C7C641EE4B2234340EA0350D062F3
:1008E00030BD0000FFFEF0FFFDF7F1FFF0B504465C
:1008F0000D4600200021092D11DDE068A5F10A0652
:1009000006EB4607072606FA07F18843A5F10A0613
:1009100006EB460603FA06F10843E0600CE02069A6
:1009200005EB4507072606FA07F1884305EB450660
:1009300003FA06F108432061072A0FDA606B561E9E
:1009400006EB86071F2606FA07F18843561E06EBBC
:10095000860605FA06F10843606322E00D2A0FDAE5
:10096000206BD61F06EB86071F2606FA07F1884381
:10097000D61F06EB860605FA06F10843206310E051
:10098000E06AA2F10D0606EB86071F2606FA07F1BC
:100990008843A2F10D0606EB860605FA06F1084328
:1009A000E062F0BD816841F008018160704721B1CB
:1009B000826842F4A002826003E0826822F4A0020E
:1009C00082607047816841F004018160704710B512
:1009D000044600F07FFD462000F040FD00BF00F01F
:1009E000CBFD0028FBD1204600F038FD00F0C4FD0F
:1009F00000F09AFD41F2883000F070FB10BD10B598
:100A00000120FFF7E4FF0720FFF7E1FF2020FFF7B9
:100A1000DEFF10BD00BFFEE710B5054801F0C4FDC4
:100A2000044801F0C1FD044801F0BEFD10BD000006
:100A30002A000020330000203C00002010B526488A
:100A400001F0B2FD00BF254800780028FBD040210E
:100A50002348FFF780FB234A23480078401C1118E5
:100A6000224802781E48FFF75DFB1D48407800F0E1
:100A70000F0040F2712148434FF6FF7101EA001464
:100A80001748807800F00F0000EB4001C1EBC01068
:100A900004EBC0041248C07800F00F0000EBC00166
:100AA00001EB001004EB80040D48007900F00F000A
:100AB00000EB800004EB40040948407900F00F008F
:100AC000204484B20020084908700949087003498D
:100AD0000870204610BD00004300002007000020E1
:100AE000BC020020BC010020040000200600002001
:100AF0000500002010B5002400F028F804E0601C78
:100B0000C4B2012000F0EAFA40210F4800F0ADFB2A
:100B1000012801D1642CF2DB642C01DB012010BD23
:100B2000002404E0601CC4B2012000F0D7FA402188
:100B3000054800F09AFB08B9642CF3DB642C01DB58
:100B40000120ECE70020EAE7000C014008B5402056
:100B5000ADF8000004208DF803006946014800F05C
:100B6000F9FA08BD000C014008B50121082000F089
:100B700009FE4020ADF8000003208DF8020010208F
:100B80008DF803006946024800F0E4FA08BD000051
:100B9000000C014010B500F06BF8FFF7ABFF10BD83
:100BA00010B5002404E0601CC4B2012000F096FAE5
:100BB0004021104800F059FB012801D1642CF2DBE0
:100BC000002404E0601CC4B2012000F087FA402138
:100BD000084800F04AFB08B9642CF3DB282000F039
:100BE0007DFA4021034800F040FB012800D110BDF0
:100BF0000020FCE7000C014070B50024002506E051
:100C00006006040EFFF7CCFF0443681CC5B2082D34
:100C1000F6DB204670BD7CB505460E4600F028F890
:100C2000FFF768FFF8B9002405E0FFF7E5FF0DF8CE
:100C30000400601CC4B2052CF7DB9DF800009DF891
:100C4000011008449DF8021008449DF80310084460
:100C50009DF80410884208D19DF8000030709DF87E
:100C60000200287001E001207CBD0020FCE70000AC
:100C700010B5FFF779FF4021074800F0FFFA44F66E
:100C8000206000F02BFA4021034800F0F9FA1E2002
:100C900000F024FA10BD0000000C01407047000075
:100CA00010B50548006800F00F0403484460204672
:100CB000FFF7F4FF10BD0000000002407047000085
:100CC00010B505480068C0F30314200102494860CC
:100CD0002046FFF7F3FF10BD000002407047000000
:100CE00010B505480068C0F303242002024948609B
:100CF0002046FFF7F3FF10BD0000024070470000E0
:100D000010B505480068C0F3033420030249486069
:100D10002046FFF7F3FF10BD0000024070470000BF
:100D200010B505480068C0F3034420040249486038
:100D30002046FFF7F3FF10BD00000240704700009F
:100D400010B505480068C0F3035420050249486007
:100D50002046FFF7F3FF10BD00000240704700007F
:100D600010B505480068C0F30364200602494860D6
:100D70002046FFF7F3FF10BD0000024021B10268DA
:100D800042F00102026004E002684FF6FE731A406E
:100D90000260704701684FF6FE7211400160002149
:100DA000016041608160C1604B49884208D14A4975
:100DB0000839496841F00F01474A083A51608AE012
:100DC00045491431884208D143490839496841F0FE
:100DD000F001414A083A51607DE03F49283188429C
:100DE00008D13D490839496841F470613A4A083AE6
:100DF000516070E038493C31884208D136490839A1
:100E0000496841F47041344A083A516063E032491C
:100E10005031884208D130490839496841F470217D
:100E20002D4A083A516056E02B496431884208D176
:100E300029490839496841F47001274A083A516044
:100E400049E025497831884208D123490839496861
:100E500041F07061204A083A51603CE01F498842E5
:100E600006D1011F096841F00F01021F116032E035
:100E70001A491431884208D11849091F096841F0FC
:100E8000F001164A121F116025E0144928318842EA
:100E900008D11249091F096841F470610F4A121FF5
:100EA000116018E00D493C31884208D10B49091FF7
:100EB000096841F47041094A121F11600BE00749AB
:100EC0005031884207D10549091F096841F4702152
:100ED000024A121F116070470800024008040240D5
:100EE00010B50022026847F6F0739A430C6A8B68CB
:100EF00023430C6923434C6923438C692343CC6906
:100F000023434C6A23438C6A23431A430260CB6811
:100F100043600B6883604B68C36010BD70B50646C4
:100F20000C46154600F0B8FCCC2000F05BF84E20D3
:100F300000F058F8284600F055F8204600F052F826
:100F4000304600F04FF800F0A7FCCC2000F04AF843
:100F5000482000F047F800BF8021034800F085F9E1
:100F60000028F9D070BD0000000C014070B5802150
:100F7000164800F085F9052000F0B0F8082521E0BA
:100F800064108021114800F079F9052000F0A6F8DE
:100F900080210E4800F074F9052000F09FF88021B0
:100FA0000A4800F062F910B144F0800401E004F056
:100FB0007F04412000F092F88021044800F060F99D
:100FC000681EC5B2002DDBDC204670BD000C014060
:100FD00010B500F061FCCC2000F004F8442000F0D3
:100FE00001F810BD70B5044608251FE080211148A6
:100FF00000F044F9052000F071F804F0010020B180
:1010000080210C4800F03CF903E08021094800F001
:1010100035F9412000F062F88021064800F030F9EF
:10102000022000F05BF86410681EC5B2002DDDDC04
:1010300070BD0000000C014008B50121082000F03F
:10104000A1FB8020ADF8000014208DF803000320E0
:101050008DF802006946024800F07CF808BD0000E7
:10106000000C014010B5FFF7E7FF8A2264217F20C2
:10107000FFF754FFFFF7ACFF10BD00002DE9F84F5C
:10108000FFF7A6FF00F008FCCC20FFF7ABFFBE2067
:10109000FFF7A8FFFFF76AFF8246FFF767FF814669
:1010A0004C464FF6FF7000EA042444EA0A04204646
:1010B000FFF70EFA0090FFF736FA07460022054BBD
:1010C000FFF71CF90546FFF741FA83465846BDE88D
:1010D000F88F00000000B03F7047000001B50849DC
:1010E000009808604FF0E020006940F001004FF0E8
:1010F000E021086100BF024800680028FBD108BD5C
:101100000C00002008B50121042000F03BFBC020AA
:10111000ADF8000018208DF8030003208DF80200C0
:1011200069460A4800F016F80121082000F02AFB61
:101130000320ADF8000018208DF8030003208DF87F
:1011400002006946024800F005F808BD00080140A9
:10115000000C01402DE9F041024600250026002048
:1011600000230024002791F803C00CF00F0591F82C
:1011700003C00CF0100CBCF1000F03D091F802C0BA
:101180004CEA050591F800C0BCF1000F31D014689D
:1011900000202BE04FF0010C0CFA00F3B1F800C076
:1011A0000CEA03069E4220D183004FF00F0C0CFA8C
:1011B00003F7BC4305FA03FC4CEA040491F803C0AE
:1011C000BCF1280F06D14FF0010C0CFA00FCC2F85C
:1011D00014C00AE091F803C0BCF1480F05D14FF0EC
:1011E000010C0CFA00FCC2F810C0401C0828D1D336
:1011F0001460B1F800C0BCF1FF0F34DD546800206A
:101200002EE000F1080C4FF0010808FA0CF3B1F8D9
:1012100000C00CEA03069E4221D183004FF00F0C60
:101220000CFA03F7BC4305FA03FC4CEA040491F8FA
:1012300003C0BCF1280F05D100F1080C08FA0CF826
:10124000C2F8148091F803C0BCF1480F07D100F137
:10125000080C4FF0010808FA0CF8C2F81080401C86
:101260000828CED35460BDE8F08102460020936880
:101270000B400BB1012000E0002070474161704736
:101280000161704710B500F06BF810BD10B5002477
:1012900000F020F9472000F0E1F800BF00F06CF901
:1012A0000028FBD1012000F0A1F804464FF6FF70A2
:1012B00000EA0424002000F099F8204484B200F0F1
:1012C00033F941F28830FFF709FF204610BD0000D6
:1012D0002DE9F041FFF793FB0948FFF7FFFEFFF709
:1012E000D5FF8046FFF7F9F806464FF03332054B3D
:1012F000FFF776F80446FFF729F9BDE8F081000012
:1013000020BF02003333F33F00BFFEE710B54FF4B8
:1013100000511248FFF7B2FF1048406820F070609B
:101320000E4948600846406840F0E06048604FF46D
:1013300080410A48FFF7A2FF0220FFF7CFFE4FF4DB
:1013400000510648FFF79CFF0220FFF7C7FE4FF44D
:1013500000510248FFF792FF10BD0000002001403D
:1013600008B50121080200F00DFA4FF4C040ADF8B5
:10137000000010208DF8030003208DF8020069465C
:101380000448FFF7E7FE4FF4C0410248FFF778FF3B
:1013900008BD00000020014010B54FF40051124874
:1013A000FFF76CFF1048406820F070600E494860FD
:1013B0000846406840F0E06048604FF480410A48C9
:1013C000FFF75EFF0220FFF789FE4FF40051064849
:1013D000FFF756FF0220FFF781FE4FF4005102484D
:1013E000FFF74CFF10BD00000020014070B505461E
:1013F00000241948406820F070601749486008468A
:10140000406840F08060486000261BE04FF40051C7
:101410001148FFF733FF0220FFF760FE4FF4005141
:101420000D48FFF72DFF6006040E4FF480410A4877
:10143000FFF71BFF08B1601CC4B20120FFF74EFE8E
:10144000701CC6B2082EE1DB15B9FFF7A5FF01E05D
:10145000FFF75CFF204670BD0020014070B50446D8
:101460001B48406820F07060194948600846406891
:1014700040F0E060486049141548FFF7FFFE002582
:1014800023E0E00928B14FF480411148FFF7F8FE4E
:1014900004E04FF480410E48FFF7F0FE6006040EB2
:1014A0000220FFF71BFE4FF400510948FFF7E8FE4A
:1014B0000220FFF713FE4FF400510548FFF7DEFE50
:1014C0000220FFF70BFE681CC5B2082DD9DB70BDEA
:1014D0000020014010B51348406820F070601149A9
:1014E00048600846406840F0E06048604FF4804142
:1014F0000C48FFF7C5FE4FF400510A48FFF7C0FE45
:101500000420FFF7EBFD4FF480410648FFF7B6FEDD
:101510000420FFF7E3FD4FF400510248FFF7AEFE51
:1015200010BD00000020014010B51248406820F0B6
:101530007060104948600846406840F0E0604860CC
:1015400049140C48FFF79AFE4FF480410948FFF711
:1015500095FE0420FFF7C2FD4FF400510548FFF748
:101560008FFE4FF480410348FFF78AFE0420FFF707
:10157000B5FD10BD0020014010B500244FF480419E
:101580001748FFF77DFE0120FFF7A8FD4FF400513B
:101590001348FFF775FE0120FFF7A0FD10484068D3
:1015A00020F070600E4948600846406840F0806056
:1015B000486007E0601CC4B2FA2C03DDFFF7B4FFFB
:1015C000012010BD4FF480410548FFF74EFE002872
:1015D000F0D14FF400510248FFF750FE0020F0E731
:1015E0000020014008B50121442000F0CBF81C2068
:1015F000ADF8000001208DF8020048208DF80300AE
:1016000069460848FFF7A6FD0120ADF800008DF8F7
:10161000020028208DF8030069460348FFF79AFD71
:1016200008BD0000001801400008014008B5012174
:10163000482000F0A7F82020ADF8000014208DF815
:10164000030003208DF8020069460C48FFF782FD75
:1016500069460B48FFF77EFD20210948FFF710FE81
:1016600020210648FFF70AFE20210448FFF708FE64
:1016700020210348FFF704FE08BD000000180140C8
:10168000000C014000BFFEE77047000070B500216C
:1016900000230F22C47804B3154C246804F4E064DA
:1016A000C4F5E064210AC1F10403CA40447804FA95
:1016B00003F184781440214309010E4C0678A155AA
:1016C000047804F01F050124AC4005786D11AD00CD
:1016D00005F1E025C5F8004109E0047804F01F0594
:1016E0000124AC40044D0678761145F8264070BDC3
:1016F0000CED00E000E400E080E100E0704710B590
:1017000000F066FCFFF7FEFC10BD00000146002063
:10171000034A506820F4404008435060704700007E
:101720000010024029B1064A52690243044B5A6133
:1017300004E0034A52698243014B5A61704700003A
:101740000010024029B1064AD2690243044BDA6113
:1017500004E0034AD2698243014BDA61704700001A
:101760000010024029B1064A12690243044B1A6173
:1017700004E0034A12698243014B1A61704700007A
:101780000010024029B1064A92690243044B9A6153
:1017900004E0034A92698243014B9A61704700005A
:1017A0000010024029B1064AD2680243044BDA60B5
:1017B00004E0034AD2688243014BDA6070470000BC
:1017C0000010024030B500210022002400232D4DDE
:1017D0006D6805F00C0121B1042905D0082923D139
:1017E00005E0294D056022E0274D05601FE0254DED
:1017F0006D6805F47012234D6D6805F48034022580
:1018000005EB92421CB9214D554305600BE01D4D7F
:101810006D6805F400351DB11C4D5543056002E0AF
:10182000194D5543056002E0174D056000BF00BF2C
:10183000144D6D6805F0F0010909154D6B5C0568E4
:10184000DD4045600F4D6D6805F4E061090A104DFB
:101850006B5C4568DD4085600A4D6D6805F460513C
:10186000C90A0B4D6B5C4568DD40C560054D6D6870
:1018700005F44041890B074D6B5CC568B5FBF3F57A
:10188000056130BD0010024000127A0000093D00E1
:101890004E0000205E00002010B580211248FFF7A6
:1018A000EFFC3220FFF71AFC80210F48FFF7E6FC1F
:1018B0004FF4FA70FFF712FC80210B48FFF7E0FCB1
:1018C0002820FFF70BFC00BF80210748FFF7CDFC65
:1018D0000028F9D14FF4FA70FFF700FC802102488C
:1018E000FFF7CEFC204610BD000C014000B587B0CC
:1018F00001210820FFF746FF01218803FFF722FF9F
:101900004FF46040ADF8180018208DF81B0003203C
:101910008DF81A0006A91848FFF71CFC4FF4604127
:101920001548FFF7ADFC0020ADF804004FF48270BD
:10193000ADF806000020ADF808000220ADF80A005E
:101940000120ADF80C004002ADF80E003820ADF8D3
:1019500010000020ADF812000720ADF8140001A916
:10196000064800F0FDF90121044800F047F8FF2087
:1019700000F006F807B000BD000C01400038004040
:1019800070B50546002405E0601CC4B2C82C01DD1A
:10199000002070BD02210E4800F0D4F90028F3D0D9
:1019A00029460B4800F0DAF9002405E0601CC4B2B7
:1019B000C82C01DD0020ECE70121054800F0C2F948
:1019C0000028F3D0024800F0C6F9C0B2E1E70000F9
:1019D0000038004010B50446074800884FF6C7712C
:1019E00008400549088008460088204308800121F6
:1019F000014800F003F810BD0038004021B1028812
:101A000042F04002028004E002884FF6BF731A40A1
:101A10000280704710B54FF480510648FFF72EFC46
:101A20000620FFF7ADFF4FF480510248FFF728FC76
:101A300010BD0000000C014010B504462403FFF760
:101A4000E9FF00F0C9F84FF480510C48FFF716FC8D
:101A50002020FFF795FFC4F30740FFF791FFC4F381
:101A60000720FFF78DFFE0B2FFF78AFF4FF48051A8
:101A70000248FFF705FC00F0AFF810BD000C014074
:101A800008B501214FF49470FFF77CFE4FF48050AD
:101A9000ADF8000010208DF8030003208DF802003F
:101AA00069461448FFF756FB4FF480511148FFF781
:101AB000E7FB0420ADF8000069460F48FFF74AFB3A
:101AC00004210D48FFF7DCFB8020ADF800006946DB
:101AD0000A48FFF73FFB80210848FFF7D1FBFFF7DB
:101AE00005FF0020FFF776FF00F038F80449088072
:101AF00008BD0000000C014000140140002001401E
:101B0000100000202DE9F04106460C4617464FF420
:101B100080511148FFF7B2FB0320FFF731FFC4F3F8
:101B20000740FFF72DFFC4F30720FFF729FFE0B2BE
:101B3000FFF726FF002505E0FF20FFF721FF705586
:101B4000681C85B2BD42F7DB4FF480510248FFF7B5
:101B500097FBBDE8F0810000000C014010B50024A7
:101B60004FF480510F48FFF789FB9020FFF708FFE3
:101B70000020FFF705FF0020FFF702FF0020FFF71E
:101B8000FFFEFF20FFF7FCFE44EA0024FF20FFF7E2
:101B9000F7FE04434FF480510248FFF771FB2046E3
:101BA00010BD0000000C014010B500244FF480511E
:101BB0000848FFF763FB0520FFF7E2FEFF20FFF771
:101BC000DFFE04464FF480510248FFF759FB2046E0
:101BD00010BD0000000C014010B500BFFFF7E4FF8E
:101BE00000F001000028F9D110BD00002DE9F047F8
:101BF00081460F4616464FEA1738C7F30B0ACAF557
:101C00008054A64200DC344644E04FEA08314FF4E9
:101C100080522248FFF776FF002508E00AEB050016
:101C20001E49085CFF2800D003E0681C85B2A5426D
:101C3000F4DB00BFA54216DA4046FFF7FDFE0025A3
:101C400007E019F8050005EB0A01144A5054681C16
:101C500085B2A542F5DB4FEA08314FF480520F48B8
:101C600000F01EF804E022463946484600F018F815
:101C7000A64200D10FE008F101084FF0000AA1448C
:101C80002744301B86B2B6F5805F02DD4FF48054E6
:101C900000E03446B9E700BFBDE8F0873C0400200F
:101CA0002DE9F04107460E461446F0B2C0F58075A6
:101CB000AC4200DC254612E02A463146384600F0A8
:101CC00013F8AC4200D10BE02F442E44601B84B2C9
:101CD000B4F5807F02DD4FF4807500E02546EBE728
:101CE00000BFBDE8F08100002DE9F04106460C463A
:101CF0001746FFF78FFE4FF480511148FFF7BEFAE9
:101D00000220FFF73DFEC4F30740FFF739FEC4F39E
:101D10000720FFF735FEE0B2FFF732FE002504E0B2
:101D2000705DFFF72DFE681C85B2BD42F8DB4FF4F5
:101D300080510348FFF7A4FAFFF74EFFBDE8F0819A
:101D4000000C01400246002013890B400BB101201A
:101D500000E0002070470146888970478181704704
:101D600010B50022028802F441520B884C882343AC
:101D70008C882343CC8823430C8923434C892343F9
:101D80008C892343CC8923431A430280838B4FF2EF
:101D9000FF74234083830B8A038210BD704710B504
:101DA00000F002F810BD00000CB50020019000907A
:101DB0003348006840F480303149086000BF304843
:101DC000006800F4003000900198401C01900098D9
:101DD00018B90198B0F5A06FF1D12948006800F456
:101DE000003010B10120009001E000200090009828
:101DF000012843D12348006840F0100021490860C1
:101E00000846006820F0030008600846006840F0BB
:101E1000020008601A48406819494860084640684E
:101E200048600846406840F4806048600846406862
:101E300020F47C1048600846406840F4E810486090
:101E40000846006840F08070086000BF0C480068D9
:101E500000F000700028F9D00948406820F0030025
:101E6000074948600846406840F00200486000BFEB
:101E70000348406800F00C000828F9D10CBD0000B0
:101E8000001002400020024010B5FEF759FC10BDC2
:101E900070B5044615480088C0F58050642100FBE9
:101EA00001F5E91705EB11510813FEF708FB206057
:101EB0000E484088C0F58050642100FB01F5E91709
:101EC00005EB11510813FEF7FAFA606007488088A5
:101ED000C0F58050642100FB01F5E91705EB1151B5
:101EE0000813FEF7ECFAA06070BD0000120000209D
:101EF00010B500F0ADFA10BD30B519480068194AA8
:101F0000B0FBF2F1481EB0F1807F01D301201BE04D
:101F1000481E4FF0E022506150170F22002804DBCA
:101F200013071C0E104B1C5406E013071D0E0F4B1D
:101F300000F00F04241F1D5500BF00204FF0E022C9
:101F4000906107201061002008B100BFFEE74FF04C
:101F5000E020006920F001004FF0E021086130BD71
:101F60006400002040420F0000E400E018ED00E0B3
:101F700010B51348006840F0010011490860084698
:101F80004068104908400E494860084600680E49FC
:101F900008400B4908600846006820F4802008606B
:101FA0000846406820F4FE0048604FF41F00886037
:101FB000FFF7F5FE4FF000600449086010BD000017
:101FC000001002400000FFF8FFFFF6FE08ED00E001
:101FD00000B587B001210220FFF7B4FB4FF4166073
:101FE000ADF814000220ADF810000020ADF8160086
:101FF000ADF8120004A92C4800F0D8F96020ADF823
:1020000000000120ADF8020028480088ADF8060065
:102010000020ADF808006946234800F067F8082161
:10202000214800F0AFF80120ADF8020020480088F8
:10203000ADF806000020ADF8080069461A4800F027
:10204000ABF80821184800F0F9F80120ADF80200BB
:1020500018480088ADF806000020ADF80800694671
:10206000114800F0F9F808210F4800F045F9012067
:10207000ADF8020010480088ADF806000020ADF869
:1020800008006946084800F041F90821064800F0B8
:102090007BF90121044800F011F80121024800F009
:1020A00019F807B000BD0000000400404600002001
:1020B000480000204A0000204C00002021B1028886
:1020C00042F08002028004E002884FF67F731A40DB
:1020D0000280704721B1028842F00102028004E0D0
:1020E00002884FF6FE731A400280704770B50024D4
:1020F00000220023058C4FF6FE7635400584028CC5
:102100008388048B4FF68F752C40B51E2C400D88AC
:102110002C43751E2A400D892A434D882A43144DAD
:10212000A8420BD0134DA84208D0134DA84205D0A9
:10213000124DA84202D0124DA84213D14FF6F775A6
:102140002A404D892A434FF6FB752A408D882A4341
:102150004FF6FF652B404FF6FF552B408D892B43E3
:10216000CD892B4383800483CD888586028470BD0E
:10217000002C014000340140004001400044014077
:10218000004801400A460021018B4FF6F7731940C1
:10219000114301837047000070B500240022002322
:1021A000058C4FF6EF7635400584028C8388048BCE
:1021B00048F6FF752C404FF6FF452C400D884FF632
:1021C000FF7606EA05252C434FF6DF752A400D8978
:1021D00006EA05152A434D8806EA05152A43154DDA
:1021E000A84202D0144DA8421DD14FF67F752A4057
:1021F0004D894FF6FF7606EA05152A434FF6BF755F
:102200002A408D8806EA05152A434FF6FF352B40F4
:102210004FF2FF752B408D8906EA85052B43CD894A
:1022200006EA85052B4383800483CD8805870284D5
:1022300070BD0000002C0140003401400A4600211E
:10224000018B4FF2FF7319404FF6FF7303EA02232D
:10225000194301837047000070B500240022002359
:10226000058C4FF6FF6635400584028C8388848B8D
:102270004FF68F752C404FF6FC752C400D882C4383
:102280004FF6FF552A400D894FF6FF7606EA0525E1
:102290002A434D8806EA05252A43154DA84202D057
:1022A000144DA8421DD14FF2FF752A404D894FF6BB
:1022B000FF7606EA05252A434FF6FF352A408D882A
:1022C00006EA05252A434EF6FF752B404DF6FF75AD
:1022D0002B408D8906EA05152B43CD8906EA0515A5
:1022E0002B4383808483CD888587028470BD000062
:1022F000002C0140003401400A460021818B4FF63A
:10230000F7731940114381837047000070B50022B4
:1023100000230024058C4EF6FF7635400584038C9F
:102320008488828B48F6FF752A404FF6FF452A4085
:102330000D884FF6FF7606EA05252A434DF6FF7510
:102340002B400D8906EA05352B434D8806EA0535F5
:102350002B430B4DA84202D00A4DA84208D14BF6A0
:10236000FF752C408D894FF6FF7606EA85152C43C4
:1023700084808283CD88A0F84050038470BD000023
:10238000002C0140003401400A460021818B4FF2AD
:10239000FF7319404FF6FF7303EA02231943818349
:1023A000704701877047A0F84010704700220288EC
:1023B0001D4B98420ED01D4B98420BD0B0F1804F70
:1023C00008D01B4B984205D01A4B984202D01A4BAA
:1023D000984204D14FF68F731A404B881A43174B1B
:1023E000984207D0164B984204D04FF6FF431A404C
:1023F000CB881A4302808B8883850B8803850A4B20
:1024000098420BD0094B984208D00E4B984205D009
:102410000D4B984202D00D4B984201D10B7A0386A6
:102420000123838270470000002C014000340140EA
:102430000004004000080040000C00400010004074
:1024400000140040004001400044014000480140A9
:102450000448006820B103480068401E0149086034
:10246000704700000C00002070B520210E4800F0DD
:10247000ADF9012817D140F225510B4800F03DF984
:10248000094800F06BFAC4B2214608A000F074FBC2
:10249000054800F063FA05462946034800F063FA50
:1024A00003A000F00FF870BD003801402563000064
:1024B00055736172743120696E74657272757074CF
:1024C0000D0A000010B504460BE014F8011B074884
:1024D00000F049FA00BF4021044800F077F90028D5
:1024E000F9D020780028F0D110BD0000003801405C
:1024F00010B540F22551264800F075F9A8B140F218
:102500002551234800F0F9F8214800F027FA214925
:10251000214A1278885420480078401C1E490870CF
:102520000846007800F03F0008701B480078401E05
:102530001849085C5A2804D117480078401E1749EA
:102540000870144815490978405C5A2812D112487D
:102550000078401E0F49085C0D280BD10E4800780A
:10256000401E0E490978401A401E0D49087001208E
:102570000C4908700821064800F028F9012806D106
:102580000821034800F0B0F8014800F0E7F910BD59
:1025900000440040BC010020050000200400002091
:1025A000060000200700002010B504460BE014F8D8
:1025B000011B074800F0D7F900BF4021044800F094
:1025C00005F90028F9D020780028F0D110BD0000CE
:1025D0000044004010B540F22551264800F003F9B0
:1025E000A8B140F22551234800F087F8214800F0B7
:1025F000B5F92149214A1278885420480078401CB6
:102600001E4908700846007800F03F0008701B481B
:102610000078401E1849085C5A2804D117480078F1
:10262000401E17490870144815490978405C5A281B
:1026300012D112480078401E0F49085CA5280BD122
:102640000E480078401E0E490978401A401E0D4978
:10265000087001200C4908700821064800F0B6F8FF
:10266000012806D10821034800F03EF8014800F097
:1026700075F910BD00480040FC0200200900002050
:10268000080000200A0000200B00002070B504465E
:102690000D460BE014F8011B074800F064F900BF79
:1026A0004021054800F092F80028F9D0281EA5F135
:1026B0000101CDB2EEDC70BD0048004010B504460B
:1026C0000BE014F8011B074800F04DF900BF402152
:1026D000044800F07BF80028F9D020780028F0D1D9
:1026E00010BD00000048004001F40072B2F5007F08
:1026F00000D100BFCA430280704710B500220023FA
:1027000040F66A14A14200D100BF0A12012494408D
:10271000A3B2DC43048010BD21B1828942F400528F
:10272000828104E082894DF6FF731A4082817047EE
:1027300010B504462048844209D101218803FFF7DF
:1027400031F800214FF48040FFF72CF832E01B48AD
:10275000844209D101214804FFF704F800214FF415
:102760000030FEF7FFFF25E01548844209D1012122
:102770008804FEF7F7FF00214FF48020FEF7F2FFF8
:1027800018E01048844209D10121C804FEF7EAFF8D
:1027900000214FF40020FEF7E5FF0BE00A488442D9
:1027A00008D101210805FEF7DDFF00214FF480105C
:1027B000FEF7D8FF10BD0000003801400044004083
:1027C00000480040004C00400050004002460020FD
:1027D000B1F5007F00D100BF13880B400BB1012081
:1027E00000E00020704770B5024600240023002559
:1027F000002040F66A16B14200D100BFC1F3421575
:1028000001F01F03012606FA03F3012D02D1968978
:10281000334006E0022D02D1168A334001E0968A49
:1028200033400C12012606FA04F41688344013B122
:102830000CB1012000E0002070BDF0B5034600247B
:1028400000260025002040F66A17B94200D100BFDB
:102850001846C1F3421401F01F06012707FA06F5D6
:10286000012C01D10C3004E0022C01D1103000E029
:1028700014301AB107682F43076002E00768AF43BE
:102880000760F0BD2DE9F04786B005460E460024EE
:10289000A24600BFA1460027B08900B100BF2F4665
:1028A0002C8A4CF6FF700440F08804432C82AC89DB
:1028B0004EF6F3100440B08831890843718908430B
:1028C0000443AC81AC8A4FF6FF400440B089044316
:1028D000AC8201A8FEF776FF1F48874202D1DDF8DF
:1028E00010A001E0DDF80CA0A88900F4004040B180
:1028F0000AEBCA0000EB0A1031684900B0FBF1F89E
:1029000007E00AEBCA0000EB0A1031688900B0FB4F
:10291000F1F86420B8FBF0F004012009642101FB08
:102920001089A88900F4004040B1322000EBC900B2
:10293000B0FBF1F000F00700044308E0322000EBA8
:1029400009106421B0FBF1F000F00F0004432C816A
:1029500006B0BDE8F08700000038014001468888D5
:10296000C0F308007047C1F308028280704700007E
:1029700000B587B0012144F20400FEF703FF2448AC
:10298000FFF7D6FE4FF40070ADF8180003208DF865
:102990001A0018208DF81B0006A91E48FEF7DAFB66
:1029A0004FF48060ADF8180004208DF81B0006A9D4
:1029B0001848FEF7CFFB25208DF8040003208DF882
:1029C00005008DF8060001208DF8070001A8FEF72C
:1029D0005DFE4FF4E13002900020ADF80C00ADF840
:1029E0000E00ADF81000ADF814000C20ADF8120088
:1029F00002A90748FFF746FF012240F2255104488B
:102A0000FFF71BFF01210248FFF786FE07B000BD5C
:102A1000003801400008014000B587B001210420C2
:102A2000FEF7B0FE01214804FEF78CFE2348FFF7B5
:102A30007FFE0420ADF8180003208DF81A0018203E
:102A40008DF81B0006A91E48FEF784FB0820ADF890
:102A5000180004208DF81B0006A91948FEF77AFB20
:102A600026208DF8040002208DF805008DF8060060
:102A700001208DF8070001A8FEF708FE4FF416505C
:102A800002900020ADF80C00ADF80E00ADF810007B
:102A9000ADF814000C20ADF8120002A90748FFF7AA
:102AA000F1FE012240F225510448FFF7C6FE012144
:102AB0000248FFF731FE07B000BD000000440040AF
:102AC0000008014000B587B001210820FEF75AFE3A
:102AD00001218804FEF736FE2448FFF729FE4FF453
:102AE0008060ADF8180003208DF81A0018208DF8CA
:102AF0001B0006A91E48FEF72DFB4FF40060ADF841
:102B0000180004208DF81B0006A91948FEF722FBC7
:102B100027208DF8040002208DF8050003208DF891
:102B2000060001208DF8070001A8FEF7AFFD4FF465
:102B3000E13002900020ADF80C00ADF80E00ADF8C9
:102B40001000ADF814000C20ADF8120002A90748DF
:102B5000FFF798FE012240F225510448FFF76DFE71
:102B600001210248FFF7D8FD07B000BD0048004032
:102B7000000C014000BFFEE70FB4054B10B503A9E0
:102B8000044A029800F017F810BC5DF814FB00002E
:102B90008D2C00087800002002E008C8121F08C130
:102BA000002AFAD170477047002001E001C1121FCE
:102BB000002AFBD170472DE9F84F99469246884686
:102BC0000546002706E025280AD051464A46904788
:102BD0006D1C7F1C28780028F5D13846BDE8F88F99
:102BE000002315F8011F18462E2915D115F8011FCD
:102BF00004232A290DD06FF02F022978A1F1300487
:102C0000092C09D800EB800002EB400008446D1C41
:102C1000F3E758F8040B6D1C2A78002ADDD0632AEC
:102C200007D0732A0FD0104651464A4690477F1C62
:102C30002AE018F8042B8DF8002000218DF80110EF
:102C40006E46012103E058F8046B4FF0FF315A073C
:102C50004FF0000401D409E0641C84420BDA8C427A
:102C6000FADB325D002AF7D105E0641C8C42FCDB04
:102C7000305D0028F9D1274404E016F8010B5146D5
:102C80004A469047641EF8D26D1CA3E770B504460F
:102C90000D46E1B20548FFF766FE00BF402103483C
:102CA000FFF794FD0028F9D0204670BD00380140A0
:102CB00090B0002002900190FFF71EF9FEF7B6FCDD
:102CC000FFF756FEFFF7A8FEFFF7FCFEB548FEF73C
:102CD00005FA4021B448FFF707FD4021B348FFF74C
:102CE00003FD4021B248FFF7FFFCB2A0FFF7EAFB6B
:102CF000B7A0FFF7E3FCFEF775FCFEF7C1FEFDF79A
:102D000049FFFEF7AFF92021B848FEF7B9FA2021B4
:102D1000B748FEF7B5FAFFF7B7F8FEF7B3FAFDF7D5
:102D20007BFEFEF7ECFCB3A0FFF7C8FC09E0B64859
:102D3000FEF7D4F9B5A0FFF71FFF2021AC48FEF73E
:102D40009DFAFEF70BFF4EF6147188420BD0FEF78A
:102D500005FF4EF61571884205D0FEF7FFFE4EF6D0
:102D600016718842E3D1AFA0FFF706FF5A208DF815
:102D70002000FE208DF83F0003208DF82100002068
:102D80008DF822008DF823008DF8240009E1FEF76C
:102D900075F9804601A902A8FDF73DFF03A8FFF7DA
:102DA00077F8FEF795FA8146FDF748FE0546A149FA
:102DB0004046FDF733FA0646FDF79CFB0B909DF865
:102DC00004000A90DDE90301FDF7D0F982464FF0D7
:102DD0008041FDF755FA07469649FDF71FFA06466A
:102DE000FDF788FB0C9093494846FDF717FA064615
:102DF000FDF780FB0D900E958F48007801286DD16E
:102E000040218E48FDF7A7F98D4A8E480078401C76
:102E100011188D4802788948FDF784F9874C60784D
:102E2000012802D1A0788DF82100E07838B900207F
:102E30008DF822008DF818008DF819000CE0E0786C
:102E4000012808D19DF8180028B901208DF822002A
:102E50008DF8180000E000BF207938B900208DF807
:102E600023008DF81A008DF81B0012E0207901284C
:102E70000ED19DF81A0058B964210C9890FBF1F01E
:102E80003C2805DA01208DF823008DF81A0000E0B7
:102E900000BF607938B900208DF824008DF81C003F
:102EA0008DF81D000CE06079012808D19DF81C0008
:102EB00028B901208DF824008DF81C0000E000BF27
:102EC0002078012803D1202108A8FFF7DFFB00208C
:102ED0005C4908705D490870574908709DF81800F2
:102EE00080B19DF81900401CC0B28DF819009DF802
:102EF0001900052806DD00208DF819008DF818004E
:102F00008DF822009DF81A0080B19DF81B00401C2E
:102F1000C0B28DF81B009DF81B00052806DD0020BF
:102F20008DF81B008DF81A008DF823009DF81C0009
:102F300080B19DF81D00401CC0B28DF81D009DF8A9
:102F40001D001E2806DD00208DF81D008DF81C00D8
:102F50008DF824009DF82200012805D140F64C117F
:102F60003B48FFF720FA03E000213948FFF71BFA3E
:102F70009DF82300012805D14FF4FA613448FFF78A
:102F800010FA03E000213248FFF70BFA2022314902
:102F900008A8FEF72BFE1C48FEF7A0F81A48FEF71B
:102FA0009DF8F4E6A086010000380140004400408E
:102FB000004800405553415254315F496E697420B6
:102FC0005375636365737366756C210D0A000000A9
:102FD0005553415254335F496E697420537563638E
:102FE00065737366756C210D0A00000000180140BE
:102FF000000C0140496E69742053756363657373F7
:1030000066756C210D0A000040420F0032355136C2
:103010003420436865636B204661696C6564210DEB
:103020000A0000003235513634205265616479213E
:103030000D0A00000000C8420B000020FC03002025
:10304000FC020020080000200A00002009000020E7
:10305000000400409CFF7F00783000080000002042
:103060007C000000982B0008F43000087C00002051
:10307000C4170000A82B000800000000000000009A
:10308000000000000000000016EF0000000000003B
:103090004B2030303030300D0A4B20303030303162
:1030A0000D0A4B2030303030320D0A4D2030303098
:1030B00030340D0A58203435300D0A5A0D0A0000FC
:1030C00000000000000000000000010203040102F3
:1030D00003040607080902040608000000A24A04C7
:1030E00000000000000000000102030406070809B8
:0430F00000000000DC
:04000005080000ED02
:00000001FF
