:020000040800F2
:10000000400800200101000855180008D514000818
:1000100051180008E10B0008B12A00080000000098
:10002000000000000000000000000000091D0008A2
:10003000A512000800000000C91800085D1E000895
:100040001B0100081B0100081B0100081B01000820
:100050001B0100081B0100081B0100081B01000810
:100060001B0100081B0100081B0100086D0E0008A1
:100070008D0E0008AD0E0008CD0E0008ED0E000834
:100080000D0F00082D0F00081B0100081B010008C0
:100090001B0100081B0100081B0100081B010008D0
:1000A0001B0100081B0100081B0100081B010008C0
:1000B0001B0100081B0100081B0100081B010008B0
:1000C0001B0100081B0100081B0100081B010008A0
:1000D0001B010008D52300085D2400084125000805
:1000E0001B0100081B0100081B010008DFF80CD0F1
:1000F00000F0B0FB00480047DD3300084008002056
:100100000648804706480047FEE7FEE7FEE7FEE7B1
:10011000FEE7FEE7FEE7FEE7FEE7FEE7DD1E00087E
:10012000ED00000840EA01039B0703D009E008C97D
:10013000121F08C0042AFAD203E011F8013B00F8AC
:10014000013B521EF9D27047D2B201E000F8012BF8
:10015000491EFBD270470022F6E710B513460A4647
:1001600004461946FFF7F0FF204610BDF0B480EAC0
:100170000102D40F4200B2EB410F02D20246084600
:1001800011464A0042D0C30DDDB2C1F3C752AD1AC9
:10019000202D35DAC1F3160141F4000204B15242B8
:1001A000C5F1200602FA06F12A411044B3EBD05FF4
:1001B00023D0C4B1012DA0EBC35009DCF0BC4FF03B
:1001C000004202EAC352DBB200F5000000F0DFB9E2
:1001D000400000F1807000EBC350A0F1807040EA55
:1001E000D170490009E0490841EAC071A0EBC35051
:1001F00000F50000400800EBC350F0BC00F0BEB9B1
:100200006142012202EB4101001BF6E7F0BC70479E
:1002100081F00041AAE780F00040A7E730B480EA0F
:10022000010202F0004530F0004221F0004013D0FE
:1002300090B1C30DD40DC2F31601C0F31600E41A39
:1002400041F4000140F400027D34914201D3641C6A
:1002500000E04900002C02DA30BC002070474FF467
:1002600000000023914201D3891A034340084FEA5A
:100270004101F7D151B1914202D14FF0004105E067
:1002800002D24FF0010101E06FF0010103EBC45015
:10029000284430BC00F072B92DE9FE4F81EA030416
:1002A00004F0004421F0004100944FF0000B23F0D3
:1002B000004350EA01045ED052EA03045BD0C3F36A
:1002C0000A54C1F30A552C44A4F2F3340194A0FB60
:1002D0000254C1F3130141F48011C3F3130343F437
:1002E000801301FB024400FB034E840A970A44EA90
:1002F000815447EA8357A4FB076802958D0A05FBE2
:1003000007854FEA932C04FB0C542705029D4FEA06
:10031000065847EA1637B5EB08056EEB070C870E53
:10032000920E47EA811742EA8312A7FB0201B6EB5D
:100330000B0164EB00042B0D43EA0C335E1844EB15
:100340001C50DA465146E7FB0201C5F313044FEA9D
:100350000B3343EA14534FEA0432019C43EA060389
:10036000A4F10C040294009CCDE900B400F04CF917
:1003700003B0BDE8F08F00200146F9E72DE9F04D0C
:1003800081EA030404F0004B21F0004514464FF0CD
:10039000000A23F0004150EA050220D054EA01028D
:1003A0001DD0C5F30A570246C5F31303C1F313006A
:1003B000C1F30A5640F4801543F48013A7EB0608F6
:1003C000101BD64608F2FD3873EB050002D308F186
:1003D000010801E092185B41B8F1000F03DA002038
:1003E0000146BDE8F08D00204FF48011064684469A
:1003F0000EE0171B73EB050705D3121B63EB050318
:1004000006434CEA010C49084FEA300092185B4160
:1004100050EA0107EDD152EA030012D082EA04004B
:1004200083EA0501084305D0101BAB4106D2012227
:10043000002306E000224FF0004302E06FF00102CB
:1004400053101AEB06004CEB085110EB0A0041EB7D
:100450000B01BDE8F04D00F0C8B8C10F80EAE070B4
:100460000844CA079623002100F091B89623002281
:10047000114600F08CB80EB540F2334102910021D4
:10048000CDE900110A460B4600F0BEF803B000BDEE
:1004900000F0004230F000400AD0C10D01F560715B
:1004A000C0F3160042EA0151C208400711437047E9
:1004B00000200146704701F0004330B421F00041B4
:1004C00050EA010206D00A0DA2F56072C1F31301D1
:1004D000002A02DC30BC00207047440F44EAC1040B
:1004E000C100E01830BC00EBC25000F047B830B596
:1004F0000B46014600202022012409E021FA02F5E2
:100500009D4205D303FA02F5491B04FA02F528447B
:10051000151EA2F10102F1DC30BD2DE9F05F0546A8
:10052000002092469B4688460646814640241BE0B2
:10053000284641464746224600F0ADF953465A4602
:10054000C01A914110D311461846224600F094F982
:100550002D1A67EB01084F4622460120002100F0CA
:100560008BF917EB00094E41201EA4F10104DFDCDA
:10057000484631462A464346BDE8F09F0029A8BFB9
:100580007047401C490008BF20F00100704710B4BC
:10059000B0FA80FC00FA0CF050EA010404BF10BC71
:1005A000704749B1CCF1200421FA04F411FA0CF19E
:1005B00018BF012121430843A3EB0C01CB1D4FEAD7
:1005C00000614FEA102042BF002010BC704700EBD2
:1005D000C35010440029A4BF10BC7047401C490000
:1005E00008BF20F0010010BC704710B5141E73F155
:1005F000000408DA401C41F1000192185B411A43E3
:1006000001D120F0010010BD2DE9F04D92469B462E
:1006100011B1B1FA81F202E0B0FA80F220329046D4
:1006200000F02AF904460F4640EA0A0041EA0B01AD
:1006300053465A46084313D0114653EA010019D0D5
:10064000C8F14002504600F026F905460E465046D5
:100650005946424600F010F9084305D0012004E055
:1006600020463946BDE8F08D0020054346EAE07695
:100670002C4337430A986305E40AA0EB08000022E4
:10068000FD0A44EA47540A3002D500200146E9E752
:10069000010510196941DDE9084500196941BDE806
:1006A000F04DA2E72DE9FE4F804681EA0300C00F1E
:1006B0000C46009021F0004123F00045B8EB020009
:1006C000A94105D24046214690461C460B460246AB
:1006D00023F00040104347D0270DC7F30A00C3F3AF
:1006E0000A510290401A019040286BDAC3F31300BC
:1006F00040F4801B0098924620B10023D2EB030AFD
:1007000063EB0B0B01985946C0F14002504600F0D4
:10071000B3F806460D4650465946019A00F0CBF80C
:1007200010EB08006141002487EA115284EAE77364
:100730001A4340D0009A62B3019A012A4FEA075245
:1007400015DC001B61EB02014FF0004202EA075288
:10075000CDE90042001C41F5801132462B46FFF7DF
:1007600053FF03B0BDE8F08F40462146F9E7001B78
:1007700061EB0201001C41F5801300185B41201859
:10078000A2F5001747EB030140EAD570B6196D4199
:1007900011E06D084FEA360645EAC0754FEA075288
:1007A000001B61EB0201001C41F5801149084FEA72
:1007B00030000019514132462B4603B0BDE8F04FDE
:1007C000FFF713BF0098012240000023D0EB020284
:1007D00063EBE073009821464FEAE074B8EB000049
:1007E00061EB0401E9E783F000435BE781F000413E
:1007F00058E7C1F30A52C1F3130140F2FF3341F449
:1008000080119A4202DA00200146704740F23343D9
:100810009A42A2F2334202DC524200F03CB800F0AD
:100820002BB8000030B5041E71F1000404DB4FF05A
:100830000044404264EB0101141E73F1000405DB27
:100840001C464FF00043524263EB0403994208BF39
:10085000904230BD064C074D06E0E06840F00103D1
:1008600094E8070098471034AC42F6D3FFF742FCF7
:100870007838000898380008202A04DB203A00FA6B
:1008800002F1002070479140C2F1200320FA03F3E7
:10089000194390407047202A04DB203A21FA02F0E5
:1008A0000021704721FA02F3D040C2F120029140AA
:1008B000084319467047202A06DBCB17203A41FA35
:1008C00002F043EAE07306E041FA02F3D040C2F1DD
:1008D00020029140084319467047000008B50121E5
:1008E000084601F005F801214FF4047001F030F8DA
:1008F0000E20ADF8000000208DF803006946024884
:1009000000F00EFD08BD00000010014010B5FFF71B
:10091000E5FF00F001F810BD00B591B03A4800F0D5
:100920001FFB3A4806903A480790002008900320A1
:10093000099000200A9080200B9040000C908000CD
:100940000D9020200E9000020F900020109006A91C
:100950002D4800F0ABFB01212B4800F0F5FA0020F8
:10096000019001208DF808008DF809004FF46020F7
:1009700003900020049003208DF8140001A923485F
:100980004C3800F071F84FF4404000F0A5FF03230D
:1009900001220B211D484C3800F08EF8032302225F
:1009A0000C211A484C3800F087F803231A460D2111
:1009B00016484C3800F080F8012114484C3800F0FB
:1009C00034F8012111484C3800F024F80F484C3815
:1009D00000F0CEF800BF0D484C3800F03BF800287E
:1009E000F9D10A484C3800F0D3F800BF07484C381A
:1009F00000F026F80028F9D1012104484C3800F015
:100A0000BCF811B000BD0000080002404C240140B9
:100A10001200002021B1826842F00102826003E0EE
:100A2000826822F001028260704721B1826842F43C
:100A30008072826003E0826822F480728260704774
:100A4000014600208A6802F004020AB1012000E099
:100A500000207047014600208A6802F008020AB1AF
:100A6000012000E00020704730B50246002000233E
:100A700050680F4C20400D790C6844EA052420434F
:100A8000506090680B4C2040D1E902542C434D79C2
:100A900044EA450420439060D06A20F470000C7C46
:100AA000641EE4B2234340EA0350D06230BD00002C
:100AB000FFFEF0FFFDF7F1FFF0B504460D46002004
:100AC0000021092D11DDE068A5F10A0606EB4607B5
:100AD000072606FA07F18843A5F10A0606EB460643
:100AE00003FA06F10843E0600CE0206905EB4507D6
:100AF000072606FA07F1884305EB450603FA06F1D7
:100B000008432061072A0FDA606B561E06EB860742
:100B10001F2606FA07F18843561E06EB860605FADD
:100B200006F10843606322E00D2A0FDA206BD61F1E
:100B300006EB86071F2606FA07F18843D61F06EB49
:100B4000860605FA06F10843206310E0E06AA2F188
:100B50000D0606EB86071F2606FA07F18843A2F169
:100B60000D0606EB860605FA06F10843E062F0BDC5
:100B7000816841F008018160704721B1826842F4C8
:100B8000A002826003E0826822F4A00282607047C3
:100B9000816841F004018160704710B5044600F09F
:100BA0007FFD462000F040FD00BF00F0CBFD002897
:100BB000FBD1204600F038FD00F0C4FD00F09AFDA6
:100BC00041F2883000F070FB10BD10B50120FFF736
:100BD000E4FF0720FFF7E1FF2020FFF7DEFF10BD55
:100BE00000BFFEE710B5054801F094FC044801F091
:100BF00091FC044801F08EFC10BD00002A0000208A
:100C0000330000203C00002010B5264801F082FC93
:100C100000BF254800780028FBD040212348FFF77B
:100C20009AFA234A23480078401C11182248027877
:100C30001E48FFF777FA1D48407800F00F0040F299
:100C4000712148434FF6FF7101EA0014174880787C
:100C500000F00F0000EB4001C1EBC01004EBC0043A
:100C60001248C07800F00F0000EBC00101EB00104B
:100C700004EB80040D48007900F00F0000EB8000C9
:100C800004EB40040948407900F00F00204484B28E
:100C90000020084908700949087003490870204677
:100CA00010BD00004300002007000020BC0200200F
:100CB000BC010020040000200600002005000020E8
:100CC00010B5002400F028F804E0601CC4B2012034
:100CD00000F0EAFA40210F4800F0ADFB012801D1F5
:100CE000642CF2DB642C01DB012010BD002404E045
:100CF000601CC4B2012000F0D7FA4021054800F082
:100D00009AFB08B9642CF3DB642C01DB0120ECE7CF
:100D10000020EAE7000C014008B54020ADF80000D3
:100D200004208DF803006946014800F0F9FA08BD77
:100D3000000C014008B50121082000F009FE402008
:100D4000ADF8000003208DF8020010208DF803009C
:100D50006946024800F0E4FA08BD0000000C0140BA
:100D600010B500F06BF8FFF7ABFF10BD10B5002415
:100D700004E0601CC4B2012000F096FA4021104843
:100D800000F059FB012801D1642CF2DB002404E0BF
:100D9000601CC4B2012000F087FA4021084800F02E
:100DA0004AFB08B9642CF3DB282000F07DFA4021CF
:100DB000034800F040FB012800D110BD0020FCE7F3
:100DC000000C014070B50024002506E06006040E0A
:100DD000FFF7CCFF0443681CC5B2082DF6DB2046A4
:100DE00070BD7CB505460E4600F028F8FFF768FF99
:100DF000F8B9002405E0FFF7E5FF0DF80400601CDA
:100E0000C4B2052CF7DB9DF800009DF801100844E2
:100E10009DF8021008449DF8031008449DF8041042
:100E2000884208D19DF8000030709DF802002870BB
:100E300001E001207CBD0020FCE7000010B5FFF7B9
:100E400079FF4021074800F0FFFA44F6206000F0E7
:100E50002BFA4021034800F0F9FA1E2000F024FA92
:100E600010BD0000000C01407047000010B505489F
:100E7000006800F00F04034844602046FFF7F4FFC9
:100E800010BD0000000002407047000010B505488A
:100E90000068C0F303142001024948602046FFF7B0
:100EA000F3FF10BD000002407047000010B5054878
:100EB0000068C0F303242002024948602046FFF77F
:100EC000F3FF10BD000002407047000010B5054858
:100ED0000068C0F303342003024948602046FFF74E
:100EE000F3FF10BD000002407047000010B5054838
:100EF0000068C0F303442004024948602046FFF71D
:100F0000F3FF10BD000002407047000010B5054817
:100F10000068C0F303542005024948602046FFF7EB
:100F2000F3FF10BD000002407047000010B50548F7
:100F30000068C0F303642006024948602046FFF7BA
:100F4000F3FF10BD0000024021B1026842F001022F
:100F5000026004E002684FF6FE731A4002607047B8
:100F600001684FF6FE72114001600021016041608E
:100F70008160C1604B49884208D14A4908394968B3
:100F800041F00F01474A083A51608AE0454914315F
:100F9000884208D143490839496841F0F001414A83
:100FA000083A51607DE03F492831884208D13D49E7
:100FB0000839496841F470613A4A083A516070E072
:100FC00038493C31884208D136490839496841F4EA
:100FD0007041344A083A516063E0324950318842E6
:100FE00008D130490839496841F470212D4A083A3E
:100FF000516056E02B496431884208D129490839AB
:10100000496841F47001274A083A516049E025498E
:101010007831884208D123490839496841F0706124
:10102000204A083A51603CE01F49884206D1011F1E
:10103000096841F00F01021F116032E01A491431B2
:10104000884208D11849091F096841F0F001164A81
:10105000121F116025E014492831884208D1124935
:10106000091F096841F470610F4A121F116018E0EE
:101070000D493C31884208D10B49091F096841F4E8
:101080007041094A121F11600BE007495031884234
:1010900007D10549091F096841F47021024A121F4E
:1010A00011607047080002400804024010B5002299
:1010B000026847F6F0739A430C6A8B6823430C6905
:1010C00023434C6923438C692343CC6923434C6AF3
:1010D00023438C6A23431A430260CB6843600B6846
:1010E00083604B68C36010BD70B506460C4615465C
:1010F00000F0B8FCCC2000F05BF84E2000F058F86F
:10110000284600F055F8204600F052F8304600F02E
:101110004FF800F0A7FCCC2000F04AF8482000F07F
:1011200047F800BF8021034800F085F90028F9D076
:1011300070BD0000000C014070B58021164800F021
:1011400085F9052000F0B0F8082521E06410802121
:10115000114800F079F9052000F0A6F880210E482A
:1011600000F074F9052000F09FF880210A4800F093
:1011700062F910B144F0800401E004F07F044120E2
:1011800000F092F88021044800F060F9681EC5B2B2
:10119000002DDBDC204670BD000C014010B500F0D6
:1011A00061FCCC2000F004F8442000F001F810BDF0
:1011B00070B5044608251FE08021114800F044F96D
:1011C000052000F071F804F0010020B180210C48E6
:1011D00000F03CF903E08021094800F035F9412096
:1011E00000F062F88021064800F030F9022000F09B
:1011F0005BF86410681EC5B2002DDDDC70BD000018
:10120000000C014008B50121082000F0A1FB80205E
:10121000ADF8000014208DF8030003208DF80200C3
:101220006946024800F07CF808BD0000000C01404F
:1012300010B5FFF7E7FF8A2264217F20FFF754FFF4
:10124000FFF7ACFF10BD00002DE9F84FFFF7A6FF38
:1012500000F008FCCC20FFF7ABFFBE20FFF7A8FF93
:10126000FFF76AFF8246FFF767FF81464C464FF65D
:10127000FF7000EA042444EA0A042046FFF7F6F867
:101280000090FFF705F907460022054BFFF704F829
:101290000546FFF710F983465846BDE8F88F000071
:1012A0000000B03F7047000001B508490098086091
:1012B0004FF0E020006940F001004FF0E0210861AC
:1012C00000BF024800680028FBD108BD0C000020C8
:1012D00008B50121042000F03BFBC020ADF8000060
:1012E00018208DF8030003208DF8020069460A4893
:1012F00000F016F80121082000F02AFB0320ADF8C9
:10130000000018208DF8030003208DF802006946C4
:10131000024800F005F808BD00080140000C01403B
:101320002DE9F0410246002500260020002300247C
:10133000002791F803C00CF00F0591F803C00CF0E2
:10134000100CBCF1000F03D091F802C04CEA050567
:1013500091F800C0BCF1000F31D0146800202BE0E0
:101360004FF0010C0CFA00F3B1F800C00CEA0306D0
:101370009E4220D183004FF00F0C0CFA03F7BC43C0
:1013800005FA03FC4CEA040491F803C0BCF1280FF1
:1013900006D14FF0010C0CFA00FCC2F814C00AE0B0
:1013A00091F803C0BCF1480F05D14FF0010C0CFAC5
:1013B00000FCC2F810C0401C0828D1D31460B1F85A
:1013C00000C0BCF1FF0F34DD546800202EE000F1B6
:1013D000080C4FF0010808FA0CF3B1F800C00CEA51
:1013E00003069E4221D183004FF00F0C0CFA03F745
:1013F000BC4305FA03FC4CEA040491F803C0BCF1B9
:10140000280F05D100F1080C08FA0CF8C2F8148076
:1014100091F803C0BCF1480F07D100F1080C4FF060
:10142000010808FA0CF8C2F81080401C0828CED336
:101430005460BDE8F0810246002093680B400BB178
:10144000012000E000207047416170470161704752
:1014500010B500F06BF810BD10B5002400F020F9B5
:10146000472000F0E1F800BF00F06CF90028FBD144
:10147000012000F0A1F804464FF6FF7000EA0424B2
:10148000002000F099F8204484B200F033F941F2D2
:101490008830FFF709FF204610BD00002DE9F0411C
:1014A000FFF793FB0948FFF7FFFEFFF7D5FF8046E4
:1014B000FEF7E1FF06464FF03332054BFEF75EFFC5
:1014C0000446FEF7F8FFBDE8F081000020BF0200EF
:1014D0003333F33F00BFFEE710B54FF4005112481D
:1014E000FFF7B2FF1048406820F070600E49486076
:1014F0000846406840F0E06048604FF480410A4888
:10150000FFF7A2FF0220FFF7CFFE4FF4005106487D
:10151000FFF79CFF0220FFF7C7FE4FF4005102487F
:10152000FFF792FF10BD00000020014008B5012127
:10153000080200F00DFA4FF4C040ADF80000102092
:101540008DF8030003208DF8020069460448FFF778
:10155000E7FE4FF4C0410248FFF778FF08BD0000E6
:101560000020014010B54FF400511248FFF76CFF06
:101570001048406820F070600E4948600846406896
:1015800040F0E06048604FF480410A48FFF75EFF9A
:101590000220FFF789FE4FF400510648FFF756FF7F
:1015A0000220FFF781FE4FF400510248FFF74CFF85
:1015B00010BD00000020014070B505460024194808
:1015C000406820F07060174948600846406840F065
:1015D0008060486000261BE04FF400511148FFF77F
:1015E00033FF0220FFF760FE4FF400510D48FFF774
:1015F0002DFF6006040E4FF480410A48FFF71BFFE1
:1016000008B1601CC4B20120FFF74EFE701CC6B2C8
:10161000082EE1DB15B9FFF7A5FF01E0FFF75CFF3E
:10162000204670BD0020014070B504461B4840684C
:1016300020F07060194948600846406840F0E0605A
:10164000486049141548FFF7FFFE002523E0E00934
:1016500028B14FF480411148FFF7F8FE04E04FF441
:1016600080410E48FFF7F0FE6006040E0220FFF7EF
:101670001BFE4FF400510948FFF7E8FE0220FFF778
:1016800013FE4FF400510548FFF7DEFE0220FFF77E
:101690000BFE681CC5B2082DD9DB70BD00200140CF
:1016A00010B51348406820F0706011494860084642
:1016B000406840F0E06048604FF480410C48FFF71C
:1016C000C5FE4FF400510A48FFF7C0FE0420FFF7A3
:1016D000EBFD4FF480410648FFF7B6FE0420FFF70C
:1016E000E3FD4FF400510248FFF7AEFE10BD0000CD
:1016F0000020014010B51248406820F07060104989
:1017000048600846406840F0E060486049140C4872
:10171000FFF79AFE4FF480410948FFF795FE042039
:10172000FFF7C2FD4FF400510548FFF78FFE4FF45D
:1017300080410348FFF78AFE0420FFF7B5FD10BD86
:101740000020014010B500244FF480411748FFF7F6
:101750007DFE0120FFF7A8FD4FF400511348FFF76D
:1017600075FE0120FFF7A0FD1048406820F0706072
:101770000E4948600846406840F08060486007E0D5
:10178000601CC4B2FA2C03DDFFF7B4FF012010BDCA
:101790004FF480410548FFF74EFE0028F0D14FF48A
:1017A00000510248FFF750FE0020F0E70020014002
:1017B00008B50121442000F0CBF81C20ADF8000052
:1017C00001208DF8020048208DF803006946084882
:1017D000FFF7A6FD0120ADF800008DF802002820DB
:1017E0008DF8030069460348FFF79AFD08BD000025
:1017F000001801400008014008B50121482000F010
:10180000A7F82020ADF8000014208DF80300032075
:101810008DF8020069460C48FFF782FD69460B48C7
:10182000FFF77EFD20210948FFF710FE2021064822
:10183000FFF70AFE20210448FFF708FE2021034895
:10184000FFF704FE08BD000000180140000C014035
:1018500000BFFEE77047000070B5002100230F2293
:10186000C47804B3154C246804F4E064C4F5E0645F
:10187000210AC1F10403CA40447804FA03F18478D0
:101880001440214309010E4C0678A155047804F058
:101890001F050124AC4005786D11AD0005F1E02570
:1018A000C5F8004109E0047804F01F050124AC40AC
:1018B000044D0678761145F8264070BD0CED00E029
:1018C00000E400E080E100E0704710B500F036FB76
:1018D000FFF7FEFC10BD000001460020034A5068DF
:1018E00020F4404008435060704700000010024060
:1018F00029B1064A52690243044B5A6104E0034A83
:1019000052698243014B5A61704700000010024047
:1019100029B1064AD2690243044BDA6104E0034A62
:10192000D2698243014BDA61704700000010024027
:1019300029B1064A12690243044B1A6104E0034AC2
:1019400012698243014B1A61704700000010024087
:1019500029B1064A92690243044B9A6104E0034AA2
:1019600092698243014B9A61704700000010024067
:1019700029B1064AD2680243044BDA6004E0034A04
:10198000D2688243014BDA607047000000100240C9
:1019900030B500210022002400232D4D6D6805F094
:1019A0000C0121B1042905D0082923D105E0294DD6
:1019B000056022E0274D05601FE0254D6D6805F4A8
:1019C0007012234D6D6805F48034022505EB9242B8
:1019D0001CB9214D554305600BE01D4D6D6805F4A4
:1019E00000351DB11C4D5543056002E0194D5543AE
:1019F000056002E0174D056000BF00BF144D6D6823
:101A000005F0F0010909154D6B5C0568DD40456086
:101A10000F4D6D6805F4E061090A104D6B5C456877
:101A2000DD4085600A4D6D6805F46051C90A0B4DB3
:101A30006B5C4568DD40C560054D6D6805F440414F
:101A4000890B074D6B5CC568B5FBF3F5056130BDCF
:101A50000010024000127A0000093D004E000020F4
:101A60005E00002010B580211248FFF7EFFC322005
:101A7000FFF71AFC80210F48FFF7E6FC4FF4FA70DD
:101A8000FFF712FC80210B48FFF7E0FC2820FFF74E
:101A90000BFC00BF80210748FFF7CDFC0028F9D1DF
:101AA0004FF4FA70FFF700FC80210248FFF7CEFCEC
:101AB000204610BD000C014000B587B00121082070
:101AC000FFF746FF01218803FFF722FF4FF4604034
:101AD000ADF8180018208DF81B0003208DF81A00AF
:101AE00006A91848FFF71CFC4FF460411548FFF7A2
:101AF000ADFC0020ADF804004FF48270ADF8060094
:101B00000020ADF808000220ADF80A000120ADF871
:101B10000C004002ADF80E003820ADF81000002097
:101B2000ADF812000720ADF8140001A9064800F036
:101B3000CDF80121044800F047F8FF2000F006F836
:101B400007B000BD000C01400038004070B50546EC
:101B5000002405E0601CC4B2C82C01DD002070BD6B
:101B600002210E4800F0A4F80028F3D029460B48C3
:101B700000F0AAF8002405E0601CC4B2C82C01DD06
:101B80000020ECE70121054800F092F80028F3D08E
:101B9000024800F096F8C0B2E1E7000000380040CB
:101BA00010B50446074800884FF6C771084005493C
:101BB000088008460088204308800121014800F081
:101BC00003F810BD0038004021B1028842F0400205
:101BD000028004E002884FF6BF731A40028070470B
:101BE00008B501214FF49470FFF7B2FE4FF4805016
:101BF000ADF8000010208DF8030003208DF80200DE
:101C000069461448FFF78CFB4FF480511148FFF7E9
:101C10001DFC0420ADF8000069460F48FFF780FB6B
:101C200004210D48FFF712FC8020ADF80000694642
:101C30000A48FFF775FB80210848FFF707FCFFF70C
:101C40003BFF0020FFF7ACFF00F00CF804490880D0
:101C500008BD0000000C01400014014000200140BC
:101C60001000002010B500244FF480510F48FFF7FA
:101C7000EBFB9020FFF76AFF0020FFF767FF0020D3
:101C8000FFF764FF0020FFF761FFFF20FFF75EFF13
:101C900044EA0024FF20FFF759FF04434FF480512A
:101CA0000248FFF7D3FB204610BD0000000C0140A6
:101CB0000246002013890B400BB1012000E00020F8
:101CC00070470146888970478181704710B50022AE
:101CD000028802F441520B884C8823438C882343AA
:101CE000CC8823430C8923434C8923438C89234389
:101CF000CC8923431A430280838B4FF2FF74234025
:101D000083830B8A038210BD704710B500F002F880
:101D100010BD00000CB50020019000903348006811
:101D200040F480303149086000BF3048006800F45A
:101D3000003000900198401C0190009818B901985B
:101D4000B0F5A06FF1D12948006800F4003010B15F
:101D50000120009001E0002000900098012843D16C
:101D60002348006840F010002149086008460068D8
:101D700020F0030008600846006840F00200086098
:101D80001A48406819494860084640684860084653
:101D9000406840F4806048600846406820F47C1049
:101DA00048600846406840F4E8104860084600680B
:101DB00040F08070086000BF0C48006800F00070C0
:101DC0000028F9D00948406820F00300074948601E
:101DD0000846406840F00200486000BF0348406881
:101DE00000F00C000828F9D10CBD000000100240E2
:101DF0000020024010B5FEF789FD10BD70B5044605
:101E000015480088C0F58050642100FB01F5E917F2
:101E100005EB11510813FEF720FB20600E484088A7
:101E2000C0F58050642100FB01F5E91705EB115165
:101E30000813FEF712FB606007488088C0F58050E9
:101E4000642100FB01F5E91705EB11510813FEF7BA
:101E500004FBA06070BD00001200002010B500F06F
:101E6000ADFA10BD30B519480068194AB0FBF2F15F
:101E7000481EB0F1807F01D301201BE0481E4FF0C7
:101E8000E022506150170F22002804DB13071C0EBC
:101E9000104B1C5406E013071D0E0F4B00F00F04EF
:101EA000241F1D5500BF00204FF0E0229061072045
:101EB0001061002008B100BFFEE74FF0E02000698C
:101EC00020F001004FF0E021086130BD64000020E7
:101ED00040420F0000E400E018ED00E010B51348A8
:101EE000006840F001001149086008464068104948
:101EF00008400E494860084600680E4908400B49F2
:101F000008600846006820F48020086008464068A1
:101F100020F4FE0048604FF41F008860FFF7F5FED4
:101F20004FF000600449086010BD0000001002403E
:101F30000000FFF8FFFFF6FE08ED00E000B587B0F7
:101F400001210220FFF7E4FC4FF41660ADF8140005
:101F50000220ADF810000020ADF81600ADF8120018
:101F600004A92C4800F0D8F96020ADF80000012049
:101F7000ADF8020028480088ADF806000020ADF852
:101F800008006946234800F067F80821214800F05E
:101F9000AFF80120ADF8020020480088ADF8060037
:101FA0000020ADF8080069461A4800F0ABF8082197
:101FB000184800F0F9F80120ADF802001848008830
:101FC000ADF806000020ADF808006946114800F0A1
:101FD000F9F808210F4800F045F90120ADF802009A
:101FE00010480088ADF806000020ADF808006946EA
:101FF000084800F041F90821064800F07BF901216A
:10200000044800F011F80121024800F019F807B067
:1020100000BD0000000400404600002048000020F1
:102020004A0000204C00002021B1028842F08002CA
:10203000028004E002884FF67F731A4002807047E6
:1020400021B1028842F00102028004E002884FF6CA
:10205000FE731A400280704770B5002400220023EE
:10206000058C4FF6FE7635400584028C8388048B00
:102070004FF68F752C40B51E2C400D882C43751ED5
:102080002A400D892A434D882A43144DA8420BD07B
:10209000134DA84208D0134DA84205D0124DA842B6
:1020A00002D0124DA84213D14FF6F7752A404D8940
:1020B0002A434FF6FB752A408D882A434FF6FF6569
:1020C0002B404FF6FF552B408D892B43CD892B4359
:1020D00083800483CD888586028470BD002C0140F6
:1020E00000340140004001400044014000480140EC
:1020F0000A460021018B4FF6F77319401143018303
:102100007047000070B5002400220023058C4FF6B4
:10211000EF7635400584028C8388048B48F6FF7582
:102120002C404FF6FF452C400D884FF6FF7606EA0F
:1021300005252C434FF6DF752A400D8906EA051563
:102140002A434D8806EA05152A43154DA84202D0B8
:10215000144DA8421DD14FF67F752A404D894FF688
:10216000FF7606EA05152A434FF6BF752A408D888B
:1021700006EA05152A434FF6FF352B404FF2FF754F
:102180002B408D8906EA85052B43CD8906EA850516
:102190002B4383800483CD880587028470BD0000B3
:1021A000002C0140003401400A460021018B4FF20F
:1021B000FF7319404FF6FF7303EA022319430183AB
:1021C0007047000070B5002400220023058C4FF6F4
:1021D000FF6635400584028C8388848B4FF68F75AB
:1021E0002C404FF6FC752C400D882C434FF6FF55C4
:1021F0002A400D894FF6FF7606EA05252A434D88C9
:1022000006EA05252A43154DA84202D0144DA842DE
:102210001DD14FF2FF752A404D894FF6FF7606EA31
:1022200005252A434FF6FF352A408D8806EA052505
:102230002A434EF6FF752B404DF6FF752B408D89D6
:1022400006EA05152B43CD8906EA05152B43838045
:102250008483CD888587028470BD0000002C0140F6
:10226000003401400A460021818B4FF6F773194074
:10227000114381837047000070B5002200230024C1
:10228000058C4EF6FF7635400584038C8488828B5E
:1022900048F6FF752A404FF6FF452A400D884FF655
:1022A000FF7606EA05252A434DF6FF752B400D897A
:1022B00006EA05352B434D8806EA05352B430B4DC1
:1022C000A84202D00A4DA84208D14BF6FF752C4017
:1022D0008D894FF6FF7606EA85152C43848082832C
:1022E000CD88A0F84050038470BD0000002C014050
:1022F000003401400A460021818B4FF2FF731940E0
:102300004FF6FF7303EA0223194381837047018765
:102310007047A0F840107047002202881D4B984279
:102320000ED01D4B98420BD0B0F1804F08D01B4B04
:10233000984205D01A4B984202D01A4B984204D1C9
:102340004FF68F731A404B881A43174B984207D0A9
:10235000164B984204D04FF6FF431A40CB881A43DD
:1023600002808B8883850B8803850A4B98420BD0AB
:10237000094B984208D00E4B984205D00D4B98421D
:1023800002D00D4B984201D10B7A03860123838240
:1023900070470000002C0140003401400004004060
:1023A00000080040000C00400010004000140040F5
:1023B00000400140004401400048014004480068DA
:1023C00020B103480068401E0149086070470000C2
:1023D0000C00002070B520210E4800F095F901286E
:1023E00017D140F225510B4800F025F9094800F0BB
:1023F00053FAC4B2214608A000F05CFB054800F087
:102400004BFA05462946034800F04BFA03A000F0BA
:102410000FF870BD003801402563000055736172EC
:10242000743120696E746572727570740D0A0000E3
:1024300010B504460BE014F8011B074800F031FA10
:1024400000BF4021044800F05FF90028F9D020784F
:102450000028F0D110BD00000038014010B540F256
:102460002551264800F05DF9A8B140F225512348D6
:1024700000F0E1F8214800F00FFA2149214A1278D2
:10248000885420480078401C1E490870084600788F
:1024900000F03F0008701B480078401E1849085C97
:1024A0005A2804D117480078401E1749087014486C
:1024B00015490978405C5A2812D112480078401E0C
:1024C0000F49085C0D280BD10E480078401E0E49BC
:1024D0000978401A401E0D49087001200C49087007
:1024E0000821064800F010F9012806D10821034808
:1024F00000F098F8014800F0CFF910BD004400400A
:10250000BC0100200500002004000020060000207F
:102510000700002010B504460BE014F8011B074823
:1025200000F0BFF900BF4021044800F0EDF800289A
:10253000F9D020780028F0D110BD00000044004000
:1025400010B540F22551264800F0EBF8A8B140F252
:102550002551234800F06FF8214800F09DF92149EA
:10256000214A1278885420480078401C1E4908707F
:102570000846007800F03F0008701B480078401EB5
:102580001849085C5A2804D117480078401E17499A
:102590000870144815490978405C5A2812D112482D
:1025A0000078401E0F49085CA5280BD10E48007822
:1025B000401E0E490978401A401E0D49087001203E
:1025C0000C4908700821064800F09EF8012806D141
:1025D0000821034800F026F8014800F05DF910BD1D
:1025E00000480040FC0200200900002008000020F4
:1025F0000A0000200B00002010B504460BE014F880
:10260000011B074800F04DF900BF4021044800F0CD
:102610007BF80028F9D020780028F0D110BD000008
:102620000048004001F40072B2F5007F00D100BF05
:10263000CA430280704710B50022002340F66A1496
:10264000A14200D100BF0A1201249440A3B2DC438E
:10265000048010BD21B1828942F40052828104E0DD
:1026600082894DF6FF731A408281704710B5044687
:102670002048844209D101218803FFF779F900211C
:102680004FF48040FFF774F932E01B48844209D1CF
:1026900001214804FFF74CF900214FF40030FFF707
:1026A00047F925E01548844209D101218804FFF744
:1026B0003FF900214FF48020FFF73AF918E0104865
:1026C000844209D10121C804FFF732F900214FF4F7
:1026D0000020FFF72DF90BE00A48844208D10121C0
:1026E0000805FFF725F900214FF48010FFF720F9C6
:1026F00010BD000000380140004400400048004088
:10270000004C00400050004002460020B1F5007F20
:1027100000D100BF13880B400BB1012000E0002066
:10272000704770B50246002400230025002040F6C3
:102730006A16B14200D100BFC1F3421501F01F0378
:10274000012606FA03F3012D02D19689334006E0F3
:10275000022D02D1168A334001E0968A33400C12D2
:10276000012606FA04F41688344013B10CB1012096
:1027700000E0002070BDF0B50346002400260025CF
:10278000002040F66A17B94200D100BF1846C1F3D5
:10279000421401F01F06012707FA06F5012C01D1AA
:1027A0000C3004E0022C01D1103000E014301AB1DA
:1027B00007682F43076002E00768AF430760F0BD7A
:1027C0002DE9F04786B005460E460024A24600BF1C
:1027D000A1460027B08900B100BF2F462C8A4CF6D5
:1027E000FF700440F08804432C82AC894EF6F3104D
:1027F0000440B08831890843718908430443AC819F
:10280000AC8A4FF6FF400440B0890443AC8201A873
:10281000FFF7BEF81F48874202D1DDF810A001E0A3
:10282000DDF80CA0A88900F4004040B10AEBCA0012
:1028300000EB0A1031684900B0FBF1F807E00AEB41
:10284000CA0000EB0A1031688900B0FBF1F864207F
:10285000B8FBF0F004012009642101FB1089A8896C
:1028600000F4004040B1322000EBC900B0FBF1F0B1
:1028700000F00700044308E0322000EB0910642157
:10288000B0FBF1F000F00F0004432C8106B0BDE86E
:10289000F08700000038014001468888C0F3080036
:1028A0007047C1F3080282807047000000B587B00E
:1028B000012144F20400FFF74BF82448FFF7D6FE4D
:1028C0004FF40070ADF8180003208DF81A0018209E
:1028D0008DF81B0006A91E48FEF722FD4FF480600C
:1028E000ADF8180004208DF81B0006A91848FEF763
:1028F00017FD25208DF8040003208DF805008DF8C4
:10290000060001208DF8070001A8FEF7A5FF4FF48F
:10291000E13002900020ADF80C00ADF80E00ADF8EB
:102920001000ADF814000C20ADF8120002A9074801
:10293000FFF746FF012240F225510448FFF71BFF35
:1029400001210248FFF786FE07B000BD00380140B4
:102950000008014000B587B001210420FEF7F8FF10
:1029600001214804FEF7D4FF2348FFF77FFE04202F
:10297000ADF8180003208DF81A0018208DF81B0000
:1029800006A91E48FEF7CCFC0820ADF8180004206C
:102990008DF81B0006A91948FEF7C2FC26208DF809
:1029A000040002208DF805008DF8060001208DF846
:1029B000070001A8FEF750FF4FF4165002900020C8
:1029C000ADF80C00ADF80E00ADF81000ADF8140035
:1029D0000C20ADF8120002A90748FFF7F1FE012212
:1029E00040F225510448FFF7C6FE01210248FFF7D7
:1029F00031FE07B000BD0000004400400008014067
:102A000000B587B001210820FEF7A2FF012188044C
:102A1000FEF77EFF2448FFF729FE4FF48060ADF8F3
:102A2000180003208DF81A0018208DF81B0006A945
:102A30001E48FEF775FC4FF40060ADF81800042046
:102A40008DF81B0006A91948FEF76AFC27208DF8AF
:102A5000040002208DF8050003208DF806000120F7
:102A60008DF8070001A8FEF7F7FE4FF4E130029061
:102A70000020ADF80C00ADF80E00ADF81000ADF878
:102A800014000C20ADF8120002A90748FFF798FEC9
:102A9000012240F225510448FFF76DFE0121024852
:102AA000FFF7D8FD07B000BD00480040000C014012
:102AB00000BFFEE70FB4054B10B503A9044A029806
:102AC00000F0DEF810BC5DF814FB0000B93300081C
:102AD000780000200FB4084B10B504A902AA03988F
:102AE00000F0CEF8044602A9002000F060FC204669
:102AF00010BC5DF814FB0000AF33000802E008C80A
:102B0000121F08C1002AFAD170477047002001E067
:102B100001C1121F002AFBD1704700002DE9FF5FA1
:102B2000DDE90220010DDDF838B0024318D044F68B
:102B30001050A1F2FF3141430D140F98012820D00D
:102B4000A5EB0B00401C5FEA000A4FF00004474E63
:102B5000DFF81C91A046504616D5CAF1000728E0C0
:102B60000F98012443A2012808D0002100980F9B50
:102B7000C0E90021C0E90243BDE8FF9F6FEA0B01F5
:102B8000F4E7CBF10000DEE7074612E0F80707D0D4
:102B90002246334640464946FDF77EFB804689463D
:102BA0002246334610461946FDF776FB04460E468C
:102BB0007F10002FEAD1DDE90201BAF1000F424691
:102BC0004B4602DAFDF768FB01E0FDF7D7FB044650
:102BD0000E460022284BFDF725FE03D84FF0FF30AC
:102BE000014607E00022254B20463146FDF75AFDFD
:102BF000FDF7FFFD102409E0002C0ADB0A22002368
:102C0000FDF78BFC019B30321A55641E50EA01021D
:102C1000F2D1641C019AC4F1110314440F9A012AE1
:102C200003D0012208430DD10AE0084304D000205C
:102C30004FF0110B0F9080E7A3EB0B056D1E0DE01D
:102C40005B4504DD4FF0000205F1010504E003DA05
:102C50004FF00002A5F10105002AECD000980F9971
:102C6000C0E90231C0E9004586E7000000002440C9
:102C70000000F03F300000000000F0430000E03FA3
:102C80002DE9FF4F95B09B468946064600250FE289
:102C9000252877D100242746F84A0121059400E031
:102CA000044316F8013F203B01FA03F01042F7D12C
:102CB00030782A2811D06FF02F033078A0F130023D
:102CC000092A16D8059A44F0020402EB820203EBAB
:102CD00042021044761C0590EFE759F8042B059248
:102CE000002A03DA504244F40054059044F00204F0
:102CF000761C30782E2816D116F8010F44F0040403
:102D00002A280DD06FF02F023078A0F13003092B64
:102D100009D807EB870302EB4303C718761CF3E7D8
:102D200059F8047B761C30786C280FD006DC4C28D0
:102D300017D068280DD06A2814D104E0742810D068
:102D40007A280FD10DE044F400140AE044F4801412
:102D500001E044F440147278824202D104F58014F8
:102D6000761C761C307866280BD013DC582877D078
:102D700009DC002875D04528F6D04628F4D047282D
:102D80001AD19DE118E0632835D0642879D06528F0
:102D900012D195E1702873D008DC6728F1D069283A
:102DA0006FD06E280DD06F2806D1B5E073282CD0D7
:102DB000752875D0782874D05A46179990476D1C9D
:102DC00075E1C4F30250022809D003280DD0D9F8C8
:102DD000001004280DD00D6009F1040967E1D9F84D
:102DE0000010EA17C1E90052F6E7D9F800100D808B
:102DF000F2E70D70F0E719F8041B8DF800100020C1
:102E00008DF80100EA46012003E059F804AB4FF0C9
:102E1000FF3061074FF0000102D40DE008F101011D
:102E20008846B9420FDA8045F8DB1AF80810002905
:102E3000F4D108E008F1010188468142FADB1AF872
:102E400008100029F6D105985B46A0EB080721463B
:102E50003846179A00F094FA284400EB080507E07A
:102E60004DE029E10DE01AF8010B5A4617999047F9
:102E7000B8F10108F7D25B4621463846179A13E1AC
:102E800042E00A220092C4F302524FF0000A022AE2
:102E900008D059F804CB032A4FEAEC710AD00DE0B0
:102EA00029E02AE009F1070121F00702F2E802C156
:102EB000914609E00FFA8CFC4FEAEC71042A03D129
:102EC0004FFA8CFC4FEAEC71002907DA0A46002120
:102ED000DCF1000C61EB02012D2202E0220504D599
:102EE0002B228DF80420012203E0E20701D02022EA
:102EF000F7E7904659E00A2102E010220DE0102188
:102F00004FF0000A00910BE010224FF0000A44F04D
:102F100004040827009203E008224FF0000A009200
:102F2000C4F30252022A05D059F804CB0021032A27
:102F300008D009E009F1070121F00702F2E802C117
:102F4000914605E01FFA8CFC042A01D10CF0FF0C1D
:102F50004FF00008220728D5702806D0009B83F088
:102F6000100353EA0A0305D00EE040228DF8042036
:102F7000012208E05CEA010206D030228DF804202C
:102F80008DF8050002229046009B83F0080353EA67
:102F90000A030AD15CEA010201D1620705D5302299
:102FA0008DF804204FF001087F1E582804D034A06B
:102FB00003900EA802900DE036A0F9E75346604654
:102FC000009AFDF7AAFA84460398825C0298401E94
:102FD000029002705CEA0100F0D1029806A9081A7A
:102FE00000F1200A600702D524F4803400E00127B4
:102FF000574502DDA7EB0A0000E0002000EB0A01C4
:10300000009005984144401A0590E00306D45B46C1
:103010002146179A059800F0B3F90544002706E009
:1030200001A85A46C05D179990476D1C7F1C474503
:10303000F6DBE0030CD55B462146179A059800F0B5
:103040009FF9054404E030205A46179990476D1CBB
:103050000099481E00900029F5DC08E002980299CA
:103060005A460078491C0291179990476D1CBAF195
:103070000001AAF1010AF1DC65E100000928010064
:1030800030313233343536373839616263646566DE
:1030900000000000303132333435363738394142A0
:1030A000434445460000000000F058F90544761CF2
:1030B000307800287FF4ECAD19B02846BDE8F08FD9
:1030C000620700D4062709F1070222F0070CFCE88A
:1030D0000223E14603F000485FEA080C02D00FF239
:1030E000702C0DE05FEA045C02D50FF2682C07E05B
:1030F0005FEAC47C02D00FF2602C01E0AFF2700CEA
:103100004FF0FF3823F00043CDF850C065280CD0B5
:1031100006DC452809D046281DD047283DD13DE092
:10312000662818D067287ED138E00021112F01DBF6
:10313000112000E0781CCDE9000106A90EA8FFF7D8
:10314000EDFCDDE90F010E9A03910021009207F1D9
:10315000010A04914DE04FF000400097CDE90110C5
:1031600006A90EA8FFF7DAFCDDE90F0203920E9B19
:1031700011990022DDF80CA00093049211B9791C7A
:1031800000EB010AB7EB0A0004D4C0F1FF3007F1ED
:10319000010A0490AAEB0700019044E0012F00DA35
:1031A00001270021112F01DD112000E03846CDE973
:1031B000000106A90EA8FFF7B1FCDDE90F010E9A88
:1031C0000391002104910092BA4621070CD403997F
:1031D000514500DA8A46BAF1010F05DD009AAAF1DD
:1031E0000101515C302908D0B84202DA10F1040F15
:1031F00006DA0121CDE9011015E0AAF10101E9E7A4
:10320000002805DC049901440491AAEB000102E0C6
:10321000411C514500DD8A460499401A401C01902A
:103220004FF000400290200704D40198504501DB84
:10323000CDF8048000208DF84F0002980DF14F0763
:10324000B0F1004F25D02B200E9002984FF00208CD
:1032500000280CDA404202902D200E9007E00A214F
:103260000298FDF744F93031029007F8011DB8F1DA
:103270000001A8F10108F2DC02980028EFD1791EC4
:103280000E980870307800F0200040F0450007F8F4
:10329000020D12A8C01B00F107081498007800B1B5
:1032A000012000EB0A01019801EBE071059841440F
:1032B000401A401E0590E00306D45B462146179A4B
:1032C000059800F05DF805441498007818B15A4646
:1032D000179990476D1CE00324D55B462146179A49
:1032E000059800F04DF805441CE00498002807DB21
:1032F000DDE90301884203DD0098405C179901E095
:10330000179930205A469047049805F10105401C52
:1033100004900198401E019004D12E205A4617991E
:1033200090476D1CBAF10001AAF1010ADDDC05E04D
:1033300017F8010B5A46179990476D1CB8F1000118
:10334000A8F10108F4DC5B462146179A0598ABE624
:103350002D0000002B000000200000002DE9F041AE
:10336000044600251E461746880404D405E0394665
:103370002020B0476D1C641EF9D52846BDE8F081B9
:103380002DE9F041044600251E469046C80301D5AC
:10339000302700E02027880404D505E04146384660
:1033A000B0476D1C641EF9D52846BDE8F0810A6857
:1033B000531C0B601070704770B504460D46E1B2A7
:1033C0000548FFF76EFA00BF40210348FFF79CF95C
:1033D0000028F9D0204670BD003801409EB0002082
:1033E0000390029001208DF85900FEF73BFDFEF797
:1033F00003FAFFF75BFAFFF7ADFAFFF701FBCA48E4
:10340000FDF752FF4021C948FFF70CF94021C84899
:10341000FFF708F94021C748FFF704F9C6A0FFF7F6
:1034200007F8CCA0FFF7E8F8FEF7C2F9FEF7D8FBE3
:10343000FDF796FCFDF7FCFE2021CD48FEF706F8CF
:103440002021CC48FEF702F8FEF7D4FCFEF700F886
:10345000FDF7C8FBFEF739FAC7A0FFF7CDF809E082
:10346000CA48FDF721FFCAA0FFF724FB2021C1486D
:10347000FDF7EAFFFEF7F6FB4EF6147188420BD01B
:10348000FEF7F0FB4EF61571884205D0FEF7EAFB19
:103490004EF616718842E3D1C3A0FFF70BFB42E161
:1034A000FDF7D2FE054602A903A8FDF79AFC04A881
:1034B000FEF7A4FCFDF7F2FF0646FDF7A5FB8146EB
:1034C00019959DF80800189004990846FCF74EFEDF
:1034D00080460499FCF74AFE0746B749FCF79EFE72
:1034E0001A901B96CDF87090B448007801287DD1D1
:1034F000B34800780628FAD14021B248FCF72BFEE9
:10350000B14AB2480078401C1118AD480278AD4865
:10351000FCF708FEAB4C6078012802D1A0788DF84A
:103520005900E07838B900208DF85A008DF8500025
:103530008DF851000CE0E078012808D19DF850008A
:1035400028B901208DF85A008DF8500000E000BF26
:10355000207938B900208DF85B008DF852008DF885
:1035600053000CE02079012808D19DF8520028B9B9
:1035700001208DF85B008DF8520000E000BF6079FB
:1035800038B900208DF85C008DF854008DF8550096
:103590000CE06079012808D19DF8540028B9012079
:1035A0008DF85C008DF8540000E000BF2078012801
:1035B00054D18DF859002846FCF76AFFCDE9000187
:1035C0009DF80C2082A107A8FFF784FA07A8FFF74F
:1035D00013F89DF8082087A107A8FFF77BFA07A832
:1035E000FFF70AF80598FCF753FF00E03DE00746B7
:1035F00088460498FCF74CFF824652460B4683A14E
:1036000007A8CDE90078FFF765FA07A8FEF7F4FFF1
:103610003046FCF73DFF07463A460B4684A107A813
:10362000FFF758FA07A8FEF7E7FF4A4687A107A861
:10363000FFF750FA07A8FEF7DFFF9DF85C00009047
:103640009DF85B309DF85A2084A107A8FFF742FA45
:1036500007A8FEF7D1FF4CA0FEF7CEFF00205B4984
:10366000087083490870554908709DF8500080B172
:103670009DF85100401CC0B28DF851009DF85100DA
:103680001E2806DD00208DF851008DF850008DF8C1
:103690005A009DF8520080B19DF85300401CC0B202
:1036A0008DF853009DF85300052806DD00208DF8A5
:1036B00053008DF852008DF85B009DF8540080B1E6
:1036C0009DF85500401CC0B28DF855009DF855007E
:1036D000FA2806DD00208DF855008DF854008DF88D
:1036E0005C009DF85A00012805D140F6CA016148E6
:1036F000FEF70DFE03E000215E48FEF708FE9DF890
:103700005B00012805D14FF4FA615A48FEF701FE2B
:1037100003E000215748FEF7FCFD1C48FDF7C4FDFF
:103720001A48FDF7C1FDBBE6A08601000038014044
:1037300000440040004800405553415254315F4915
:103740006E6974205375636365737366756C210DC0
:103750000A0000005553415254335F496E6974208A
:103760005375636365737366756C210D0A00000001
:1037700000180140000C0140496E697420537563C4
:103780006365737366756C210D0A000040420F007B
:10379000323551363420436865636B204661696C6D
:1037A0006564210D0A00000032355136342052651F
:1037B000616479210D0A0000000040400B000020E8
:1037C0000A000020FC030020FC020020080000206A
:1037D0004169722074656D70657261747572653AC5
:1037E00020256420A1E62028252E326620A1E6208F
:1037F000290D0A004169722068756D6964697479E0
:103800003A2025642025250D0A000000536F696CBD
:10381000206D6F6973747572653A20252E326620AB
:1038200025252C20252E32662025250D0A00000096
:103830004C6967687420696E74656E736974793A4F
:1038400020252E3266206C780D0A0000434F323A54
:103850002025642070706D0D0A000000463D25642F
:103860002C20503D25642C204C3D25640000000098
:1038700009000020000400409838000800000020E3
:103880007C000000FC2A0008143900087C0000209D
:10389000C40700000C2B000800000000000000001E
:1038A000000000000000000016EF00000000000013
:1038B0004B2030303030300D0A4B2030303030313A
:1038C0000D0A4B2030303030320D0A4D2030303070
:1038D00030340D0A58203435300D0A5A0D0A0000D4
:1038E000D007000098080000000001020304010254
:1038F00003040607080902040608000000A24A049F
:10390000000000000000000001020304060708098F
:0439100000000000B3
:04000005080000ED02
:00000001FF
